{
  "contractName": "Migrations",
  "abi": [
    {
      "inputs": [],
      "name": "last_completed_migration",
      "outputs": [
        {
          "internalType": "uint256",
          "name": "",
          "type": "uint256"
        }
      ],
      "stateMutability": "view",
      "type": "function"
    },
    {
      "inputs": [
        {
          "internalType": "uint256",
          "name": "completed",
          "type": "uint256"
        }
      ],
      "name": "setCompleted",
      "outputs": [],
      "stateMutability": "nonpayable",
      "type": "function"
    },
    {
      "inputs": [
        {
          "internalType": "address",
          "name": "new_address",
          "type": "address"
        }
      ],
      "name": "upgrade",
      "outputs": [],
      "stateMutability": "nonpayable",
      "type": "function"
    }
  ],
  "bytecode": "0x608060405234801561001057600080fd5b5061014c806100206000396000f3fe608060405234801561001057600080fd5b50600436106100415760003560e01c80630900f01014610046578063445df0ac1461006e578063fdacd57614610088575b600080fd5b61006c6004803603602081101561005c57600080fd5b50356001600160a01b03166100a5565b005b61007661010b565b60408051918252519081900360200190f35b61006c6004803603602081101561009e57600080fd5b5035610111565b6000805460408051637ed66abb60e11b815260048101929092525183926001600160a01b0384169263fdacd576926024808301939282900301818387803b1580156100ef57600080fd5b505af1158015610103573d6000803e3d6000fd5b505050505050565b60005481565b60005556fea2646970667358221220b2683e018a3e69994e63d31abb90f8166c286f77849927a92a01fcaed640255064736f6c634300060c0033",
  "immutableReferences": {},
  "source": "// SPDX-License-Identifier: MIT\n\npragma solidity 0.6.12;\n\n// This is used for truffle migrations / testing.\n\ncontract Migrations {\n    uint256 public last_completed_migration;\n\n    function setCompleted(uint256 completed) public {\n        last_completed_migration = completed;\n    }\n\n    function upgrade(address new_address) public {\n        Migrations upgraded = Migrations(new_address);\n        upgraded.setCompleted(last_completed_migration);\n    }\n}\n",
  "sourcePath": "/Users/dazheng/workspace/token-contracts/qusd-qtum/token/contracts/Migrations.sol",
  "compiler": {
    "name": "solc",
    "version": "0.6.12+commit.27d51765.Emscripten.clang"
  },
  "schemaVersion": "3.3.3",
  "updatedAt": "2021-03-17T05:06:47.303Z",
  "devdoc": {
    "kind": "dev",
    "methods": {},
    "version": 1
  },
  "userdoc": {
    "kind": "user",
    "methods": {},
    "version": 1
  }
}