{
  "contractName": "QUSDIssuer",
  "abi": [
    {
      "inputs": [
        {
          "internalType": "address",
          "name": "initialImplementation",
          "type": "address"
        },
        {
          "internalType": "uint256",
          "name": "initialMintWaitBlocks",
          "type": "uint256"
        }
      ],
      "stateMutability": "nonpayable",
      "type": "constructor"
    },
    {
      "anonymous": false,
      "inputs": [
        {
          "indexed": true,
          "internalType": "address",
          "name": "member",
          "type": "address"
        }
      ],
      "name": "AddMember",
      "type": "event"
    },
    {
      "anonymous": false,
      "inputs": [
        {
          "indexed": false,
          "internalType": "address",
          "name": "oldImplementation",
          "type": "address"
        },
        {
          "indexed": false,
          "internalType": "address",
          "name": "newImplementation",
          "type": "address"
        }
      ],
      "name": "ImplementationChange",
      "type": "event"
    },
    {
      "anonymous": false,
      "inputs": [
        {
          "indexed": true,
          "internalType": "address",
          "name": "proposer",
          "type": "address"
        },
        {
          "indexed": false,
          "internalType": "uint256",
          "name": "pendingMintsIndex",
          "type": "uint256"
        }
      ],
      "name": "MintProposed",
      "type": "event"
    },
    {
      "anonymous": false,
      "inputs": [
        {
          "indexed": true,
          "internalType": "address",
          "name": "sender",
          "type": "address"
        },
        {
          "indexed": false,
          "internalType": "uint256",
          "name": "pendingMintsIndex",
          "type": "uint256"
        }
      ],
      "name": "MintRejected",
      "type": "event"
    },
    {
      "anonymous": false,
      "inputs": [
        {
          "indexed": true,
          "internalType": "address",
          "name": "sender",
          "type": "address"
        },
        {
          "indexed": false,
          "internalType": "uint256",
          "name": "pendingMintsIndex",
          "type": "uint256"
        }
      ],
      "name": "MintSent",
      "type": "event"
    },
    {
      "anonymous": false,
      "inputs": [
        {
          "indexed": false,
          "internalType": "uint256",
          "name": "oldMintWaitBlocks",
          "type": "uint256"
        },
        {
          "indexed": false,
          "internalType": "uint256",
          "name": "newMintWaitBlocks",
          "type": "uint256"
        }
      ],
      "name": "MintWaitBlocksUpdated",
      "type": "event"
    },
    {
      "anonymous": false,
      "inputs": [
        {
          "indexed": true,
          "internalType": "address",
          "name": "oldProposedOwner",
          "type": "address"
        }
      ],
      "name": "OwnershipTransferDisregarded",
      "type": "event"
    },
    {
      "anonymous": false,
      "inputs": [
        {
          "indexed": true,
          "internalType": "address",
          "name": "currentOwner",
          "type": "address"
        },
        {
          "indexed": true,
          "internalType": "address",
          "name": "proposedOwner",
          "type": "address"
        }
      ],
      "name": "OwnershipTransferProposed",
      "type": "event"
    },
    {
      "anonymous": false,
      "inputs": [
        {
          "indexed": true,
          "internalType": "address",
          "name": "oldOwner",
          "type": "address"
        },
        {
          "indexed": true,
          "internalType": "address",
          "name": "newOwner",
          "type": "address"
        }
      ],
      "name": "OwnershipTransferred",
      "type": "event"
    },
    {
      "anonymous": false,
      "inputs": [
        {
          "indexed": true,
          "internalType": "address",
          "name": "member",
          "type": "address"
        }
      ],
      "name": "RemoveMember",
      "type": "event"
    },
    {
      "inputs": [
        {
          "internalType": "uint256",
          "name": "",
          "type": "uint256"
        }
      ],
      "name": "pendingMints",
      "outputs": [
        {
          "internalType": "address",
          "name": "recipient",
          "type": "address"
        },
        {
          "internalType": "uint256",
          "name": "value",
          "type": "uint256"
        },
        {
          "internalType": "uint32",
          "name": "label",
          "type": "uint32"
        },
        {
          "internalType": "uint256",
          "name": "canMintAtBlock",
          "type": "uint256"
        }
      ],
      "stateMutability": "view",
      "type": "function"
    },
    {
      "inputs": [],
      "name": "implementation",
      "outputs": [
        {
          "internalType": "address",
          "name": "",
          "type": "address"
        }
      ],
      "stateMutability": "view",
      "type": "function"
    },
    {
      "inputs": [
        {
          "internalType": "address",
          "name": "implementationAddress",
          "type": "address"
        }
      ],
      "name": "setImplementation",
      "outputs": [],
      "stateMutability": "nonpayable",
      "type": "function"
    },
    {
      "inputs": [
        {
          "internalType": "address",
          "name": "addr",
          "type": "address"
        }
      ],
      "name": "isMember",
      "outputs": [
        {
          "internalType": "bool",
          "name": "",
          "type": "bool"
        }
      ],
      "stateMutability": "view",
      "type": "function"
    },
    {
      "inputs": [],
      "name": "maxMembers",
      "outputs": [
        {
          "internalType": "uint8",
          "name": "",
          "type": "uint8"
        }
      ],
      "stateMutability": "pure",
      "type": "function"
    },
    {
      "inputs": [],
      "name": "numMembers",
      "outputs": [
        {
          "internalType": "uint8",
          "name": "",
          "type": "uint8"
        }
      ],
      "stateMutability": "view",
      "type": "function"
    },
    {
      "inputs": [
        {
          "internalType": "address",
          "name": "addr",
          "type": "address"
        }
      ],
      "name": "addMember",
      "outputs": [],
      "stateMutability": "nonpayable",
      "type": "function"
    },
    {
      "inputs": [
        {
          "internalType": "address",
          "name": "addr",
          "type": "address"
        }
      ],
      "name": "removeMember",
      "outputs": [],
      "stateMutability": "nonpayable",
      "type": "function"
    },
    {
      "inputs": [],
      "name": "mintWaitBlocks",
      "outputs": [
        {
          "internalType": "uint256",
          "name": "",
          "type": "uint256"
        }
      ],
      "stateMutability": "view",
      "type": "function"
    },
    {
      "inputs": [
        {
          "internalType": "uint256",
          "name": "newMintWaitBlocks",
          "type": "uint256"
        }
      ],
      "name": "setMintWaitBlocks",
      "outputs": [
        {
          "internalType": "bool",
          "name": "",
          "type": "bool"
        }
      ],
      "stateMutability": "nonpayable",
      "type": "function"
    },
    {
      "inputs": [],
      "name": "pendingMintsIndex",
      "outputs": [
        {
          "internalType": "uint256",
          "name": "",
          "type": "uint256"
        }
      ],
      "stateMutability": "view",
      "type": "function"
    },
    {
      "inputs": [
        {
          "internalType": "address",
          "name": "to",
          "type": "address"
        },
        {
          "internalType": "uint256",
          "name": "value",
          "type": "uint256"
        }
      ],
      "name": "proposeMint",
      "outputs": [
        {
          "internalType": "uint256",
          "name": "",
          "type": "uint256"
        }
      ],
      "stateMutability": "nonpayable",
      "type": "function"
    },
    {
      "inputs": [
        {
          "internalType": "address",
          "name": "to",
          "type": "address"
        },
        {
          "internalType": "uint256",
          "name": "value",
          "type": "uint256"
        },
        {
          "internalType": "uint32",
          "name": "label",
          "type": "uint32"
        }
      ],
      "name": "proposeMintForLabel",
      "outputs": [
        {
          "internalType": "uint256",
          "name": "",
          "type": "uint256"
        }
      ],
      "stateMutability": "nonpayable",
      "type": "function"
    },
    {
      "inputs": [
        {
          "internalType": "uint256",
          "name": "index",
          "type": "uint256"
        }
      ],
      "name": "sendMint",
      "outputs": [
        {
          "internalType": "bool",
          "name": "",
          "type": "bool"
        }
      ],
      "stateMutability": "nonpayable",
      "type": "function"
    },
    {
      "inputs": [
        {
          "internalType": "uint256",
          "name": "index",
          "type": "uint256"
        }
      ],
      "name": "rejectMint",
      "outputs": [
        {
          "internalType": "bool",
          "name": "",
          "type": "bool"
        }
      ],
      "stateMutability": "nonpayable",
      "type": "function"
    },
    {
      "inputs": [],
      "name": "owner",
      "outputs": [
        {
          "internalType": "address",
          "name": "",
          "type": "address"
        }
      ],
      "stateMutability": "view",
      "type": "function"
    },
    {
      "inputs": [],
      "name": "proposedOwner",
      "outputs": [
        {
          "internalType": "address",
          "name": "",
          "type": "address"
        }
      ],
      "stateMutability": "view",
      "type": "function"
    },
    {
      "inputs": [
        {
          "internalType": "address",
          "name": "newProposedOwner",
          "type": "address"
        }
      ],
      "name": "proposeOwner",
      "outputs": [],
      "stateMutability": "nonpayable",
      "type": "function"
    },
    {
      "inputs": [],
      "name": "disregardProposeOwner",
      "outputs": [],
      "stateMutability": "nonpayable",
      "type": "function"
    },
    {
      "inputs": [],
      "name": "claimOwnership",
      "outputs": [],
      "stateMutability": "nonpayable",
      "type": "function"
    },
    {
      "inputs": [
        {
          "internalType": "uint32",
          "name": "label",
          "type": "uint32"
        }
      ],
      "name": "addLabel",
      "outputs": [
        {
          "internalType": "bool",
          "name": "",
          "type": "bool"
        }
      ],
      "stateMutability": "nonpayable",
      "type": "function"
    },
    {
      "inputs": [
        {
          "internalType": "uint32",
          "name": "label",
          "type": "uint32"
        }
      ],
      "name": "removeLabel",
      "outputs": [
        {
          "internalType": "bool",
          "name": "",
          "type": "bool"
        }
      ],
      "stateMutability": "nonpayable",
      "type": "function"
    }
  ],
  "bytecode": "0x608060405234801561001057600080fd5b5060405161135d38038061135d8339818101604052604081101561003357600080fd5b5080516020909101516002805460ff1916905560035560006005819055600680546001600160a01b03199081163317909155600780548216905581546001600160a01b0390931692169190911790556112cc806100916000396000f3fe608060405234801561001057600080fd5b50600436106101425760003560e01c8063a230c524116100b8578063cc56821d1161007c578063cc56821d1461034c578063d153b60c14610369578063d784d42614610371578063ddc904d014610397578063eeafd1441461039f578063f6dc848a146103d757610142565b8063a230c524146102b5578063b5ed298a146102db578063bf4386a014610301578063c3c835d414610309578063ca6d56dc1461032657610142565b80634e71e0c81161010a5780634e71e0c8146101db5780635c60da1b146101e357806363900ca61461020757806365bf4354146102595780638da5cb5b146102905780638e33623b1461029857610142565b806303acb448146101475780630b1ca49a1461015157806315d4c5d5146101775780633b282dc5146101b55780634698d110146101bd575b600080fd5b61014f6103fa565b005b61014f6004803603602081101561016757600080fd5b50356001600160a01b0316610501565b6101a36004803603604081101561018d57600080fd5b506001600160a01b038135169060200135610613565b60408051918252519081900360200190f35b6101a361072c565b6101c5610732565b6040805160ff9092168252519081900360200190f35b61014f61073b565b6101eb6107ee565b604080516001600160a01b039092168252519081900360200190f35b6102246004803603602081101561021d57600080fd5b50356107fd565b604080516001600160a01b039095168552602085019390935263ffffffff909116838301526060830152519081900360800190f35b61027c6004803603602081101561026f57600080fd5b503563ffffffff16610837565b604080519115158252519081900360200190f35b6101eb61090e565b61027c600480360360208110156102ae57600080fd5b503561091d565b61027c600480360360208110156102cb57600080fd5b50356001600160a01b0316610add565b61014f600480360360208110156102f157600080fd5b50356001600160a01b0316610afb565b6101c5610c40565b61027c6004803603602081101561031f57600080fd5b5035610c45565b61014f6004803603602081101561033c57600080fd5b50356001600160a01b0316610cd9565b61027c6004803603602081101561036257600080fd5b5035610e48565b6101eb610f72565b61014f6004803603602081101561038757600080fd5b50356001600160a01b0316610f81565b6101a3611036565b6101a3600480360360608110156103b557600080fd5b5080356001600160a01b0316906020810135906040013563ffffffff1661103c565b61027c600480360360208110156103ed57600080fd5b503563ffffffff16611159565b6007546001600160a01b031633148061041d57506006546001600160a01b031633145b61046e576040805162461bcd60e51b815260206004820152601b60248201527f6f6e6c792070726f706f7365644f776e6572206f72206f776e65720000000000604482015290519081900360640190fd5b6007546001600160a01b03166104b55760405162461bcd60e51b815260040180806020018281038252603b81526020018061125c603b913960400191505060405180910390fd5b600780546001600160a01b031981169091556040516001600160a01b039091169081907f24f4590b0077912a4db89e7430de7986175c27bede1b47ee039e3b421c2e798e90600090a250565b6006546001600160a01b0316331461054c576040805162461bcd60e51b815260206004820152600960248201526837b7363ca7bbb732b960b91b604482015290519081900360640190fd5b6001600160a01b03811660009081526001602081905260409091205460ff161515146105ae576040805162461bcd60e51b815260206004820152600c60248201526b3737ba10309036b2b6b132b960a11b604482015290519081900360640190fd5b6001600160a01b038116600081815260016020526040808220805460ff199081169091556002805460001960ff82811691909101169216919091179055517f7693a3e9eac51f172f145e6f54bc5554168997a1f4efb40f3fad091aa7cfb0e79190a250565b3360009081526001602052604081205460ff16610664576040805162461bcd60e51b815260206004820152600a60248201526937b7363ca6b2b6b132b960b11b604482015290519081900360640190fd5b604080516080810182526001600160a01b03858116825260208083018681526000848601818152600380544301606088019081526005805485526004875293899020975188546001600160a01b0319169716969096178755925160018701555160028601805463ffffffff191663ffffffff9092169190911790559251930192909255548251908152915133927f26c331002c95570b5f1f5612efa7e6b6b63241e5722567f03898aa1facf9d81292908290030190a250600580546001810190915592915050565b60035490565b60025460ff1690565b6007546001600160a01b0316331461078e576040805162461bcd60e51b815260206004820152601160248201527037b7363ca83937b837b9b2b227bbb732b960791b604482015290519081900360640190fd5b60068054600780546001600160a01b03198084166001600160a01b038381169190911795869055911690915560405191811692169082907f8be0079c531659141344cd1fd0a4f28419497f9722a3daafe3b4186f6b6457e090600090a350565b6000546001600160a01b031690565b60046020526000908152604090208054600182015460028301546003909301546001600160a01b0390921692909163ffffffff9091169084565b3360009081526001602052604081205460ff16610888576040805162461bcd60e51b815260206004820152600a60248201526937b7363ca6b2b6b132b960b11b604482015290519081900360640190fd5b600080546040805163196fd0d560e21b815263ffffffff8616600482015290516001600160a01b03909216926365bf4354926024808401936020939083900390910190829087803b1580156108dc57600080fd5b505af11580156108f0573d6000803e3d6000fd5b505050506040513d602081101561090657600080fd5b505192915050565b6006546001600160a01b031690565b3360009081526001602052604081205460ff1661096e576040805162461bcd60e51b815260206004820152600a60248201526937b7363ca6b2b6b132b960b11b604482015290519081900360640190fd5b6000828152600460205260409020600301544310156109be5760405162461bcd60e51b81526004018080602001828103825260348152602001806112286034913960400191505060405180910390fd5b6000805483825260046020818152604080852080546001820154600290920154835163337d966160e21b81526001600160a01b0392831696810196909652602486019290925263ffffffff9091166044850152905193169363cdf65984936064808501949192918390030190829087803b158015610a3b57600080fd5b505af1158015610a4f573d6000803e3d6000fd5b505050506040513d6020811015610a6557600080fd5b505060408051838152905133917fa89a82c544be9748056a09c6047fc397987b9826c67cd3053000ad63e930a671919081900360200190a250600090815260046020526040812080546001600160a01b0319168155600180820183905560028201805463ffffffff1916905560039091019190915590565b6001600160a01b031660009081526001602052604090205460ff1690565b6006546001600160a01b03163314610b46576040805162461bcd60e51b815260206004820152600960248201526837b7363ca7bbb732b960b91b604482015290519081900360640190fd5b6001600160a01b038116610b8b5760405162461bcd60e51b81526004018080602001828103825260298152602001806111ff6029913960400191505060405180910390fd5b336001600160a01b0382161415610be9576040805162461bcd60e51b815260206004820152601760248201527f63616c6c657220616c7265616479206973206f776e6572000000000000000000604482015290519081900360640190fd5b600780546001600160a01b0319166001600160a01b038381169190911791829055600654604051928216929116907ff4e75b79500ab730f8a026ed3cba6d55331bcb64c9e9f60c548e371356e5e3c090600090a350565b60ff90565b6006546000906001600160a01b03163314610c93576040805162461bcd60e51b815260206004820152600960248201526837b7363ca7bbb732b960b91b604482015290519081900360640190fd5b600354604080519182526020820184905280517f2a9d402f5d2923f14620e64d88d8fec68475d0677506fa65af79fef6e997a5749281900390910190a150600355600190565b6006546001600160a01b03163314610d24576040805162461bcd60e51b815260206004820152600960248201526837b7363ca7bbb732b960b91b604482015290519081900360640190fd5b60025460ff90811610610d7e576040805162461bcd60e51b815260206004820152601c60248201527f6578636565647320746865206d656d62657273686970206c696d697400000000604482015290519081900360640190fd5b6001600160a01b03811660009081526001602052604090205460ff1615610ddf576040805162461bcd60e51b815260206004820152601060248201526f30b63932b0b23c90309036b2b6b132b960811b604482015290519081900360640190fd5b6001600160a01b0381166000818152600160208190526040808320805460ff1990811684179091556002805491821660ff92831690940190911692909217909155517f1a2323d99020f3db8e6ea85b1eea81e5bf422695877228e3d8a0241d7e957a6c9190a250565b3360009081526001602052604081205460ff16610e99576040805162461bcd60e51b815260206004820152600a60248201526937b7363ca6b2b6b132b960b11b604482015290519081900360640190fd5b600082815260046020526040902060010154610efc576040805162461bcd60e51b815260206004820181905260248201527f746869732070656e64696e67206d696e7420646f6573206e6f74206578697374604482015290519081900360640190fd5b60408051838152905133917f361c66116259e03fa0d680ae38e764a0f21907b886c8bffc80ef7669a92610ce919081900360200190a250600090815260046020526040812080546001600160a01b0319168155600180820183905560028201805463ffffffff1916905560039091019190915590565b6007546001600160a01b031690565b6006546001600160a01b03163314610fcc576040805162461bcd60e51b815260206004820152600960248201526837b7363ca7bbb732b960b91b604482015290519081900360640190fd5b600054604080516001600160a01b039283168152918316602083015280517ffe2636bea9a0d9b9efed1e73a09b8e52e54d06f17d04742f613578287b8e361b9281900390910190a1600080546001600160a01b0319166001600160a01b0392909216919091179055565b60055490565b3360009081526001602052604081205460ff1661108d576040805162461bcd60e51b815260206004820152600a60248201526937b7363ca6b2b6b132b960b11b604482015290519081900360640190fd5b604080516080810182526001600160a01b038681168252602080830187815263ffffffff87811685870190815260038054430160608801908152600580546000908152600488528a9020985189546001600160a01b031916981697909717885593516001880155905160028701805463ffffffff191691909316179091559051930192909255548251908152915133927f26c331002c95570b5f1f5612efa7e6b6b63241e5722567f03898aa1facf9d81292908290030190a25060058054600181019091559392505050565b3360009081526001602052604081205460ff166111aa576040805162461bcd60e51b815260206004820152600a60248201526937b7363ca6b2b6b132b960b11b604482015290519081900360640190fd5b6000805460408051637b6e424560e11b815263ffffffff8616600482015290516001600160a01b039092169263f6dc848a926024808401936020939083900390910190829087803b1580156108dc57600080fdfe63616e6e6f74207472616e73666572206f776e65727368697020746f2061646472657373207a65726f63616e6e6f742073656e64206d696e7420756e74696c2073756666696369656e7420626c6f636b7320686176652070617373656463616e206f6e6c792064697372656761726420612070726f706f736564206f776e65722074686174207761732070726576696f75736c7920736574a26469706673582212205bf4c56b36a9489cf409747a938a16f2f4206501c5803f08bf7d0a3d86fc1fcc64736f6c634300060c0033",
  "immutableReferences": {},
  "source": "// SPDX-License-Identifier: UNLICENSED\n\npragma solidity 0.6.12;\n\nimport \"@openzeppelin/contracts/math/SafeMath.sol\";\nimport \"../contracts/QUSDImplementation.sol\"; // Workaround Truffle duplicate artifacts different paths issues\n\n/**\n * @title QUSDIssuer\n * @dev This contract will be the issuer for QUSD. It provides a check and balance on\n * token issuance by requiring mints to be first proposed and a certain number of blocks\n * to have passed before it can be executed. This gives other issuers a time to check\n * that the issuance is valid and if not, reject the mint.\n */\ncontract QUSDIssuer {\n    using SafeMath for uint256;\n\n    // IMPLEMENTATION\n    QUSDImplementation internal _implementation;\n    event ImplementationChange(\n        address oldImplementation,\n        address newImplementation\n    );\n\n    // CONSTANTS\n    uint8 internal constant _maxMembers = 255;\n\n    // MEMBERSHIP DATA\n    mapping(address => bool) internal _members;\n    uint8 internal _numMembers;\n    event AddMember(address indexed member);\n    event RemoveMember(address indexed member);\n\n    // WAIT TIME\n    uint256 internal _mintWaitBlocks;\n    event MintWaitBlocksUpdated(\n        uint256 oldMintWaitBlocks,\n        uint256 newMintWaitBlocks\n    );\n\n    // PENDING TXS\n    struct PendingMint {\n        address recipient;\n        uint256 value;\n        uint32 label;\n        uint256 canMintAtBlock;\n    }\n    // NOTE: pendingMints is public and will generate a getter automatically\n    // Current solidity version does not support returning structs so we fall back to this\n    mapping(uint256 => PendingMint) public pendingMints;\n    uint256 internal _pendingMintsIndex;\n    event MintProposed(address indexed proposer, uint256 pendingMintsIndex);\n    event MintSent(address indexed sender, uint256 pendingMintsIndex);\n    event MintRejected(address indexed sender, uint256 pendingMintsIndex);\n\n    // OWNER\n    address internal _owner;\n    address internal _proposedOwner;\n    event OwnershipTransferProposed(\n        address indexed currentOwner,\n        address indexed proposedOwner\n    );\n    event OwnershipTransferDisregarded(address indexed oldProposedOwner);\n    event OwnershipTransferred(\n        address indexed oldOwner,\n        address indexed newOwner\n    );\n\n    // CONSTRUCTOR\n\n    constructor(address initialImplementation, uint256 initialMintWaitBlocks)\n        public\n    {\n        _numMembers = 0;\n        _mintWaitBlocks = initialMintWaitBlocks;\n        _pendingMintsIndex = 0;\n        _owner = msg.sender;\n        _proposedOwner = address(0);\n        _implementation = QUSDImplementation(initialImplementation);\n    }\n\n    // IMPLEMENTATION LOGIC\n\n    /**\n     * @return The address of the implementation.\n     */\n    function implementation() external view returns (address) {\n        return address(_implementation);\n    }\n\n    /**\n     * @dev Sets the implementation contract address.\n     * @param implementationAddress The address of the implementation to point to.\n     */\n    function setImplementation(address implementationAddress)\n        external\n        onlyOwner\n    {\n        emit ImplementationChange(\n            address(_implementation),\n            implementationAddress\n        );\n        _implementation = QUSDImplementation(implementationAddress);\n    }\n\n    // MEMBERSHIP LOGIC\n\n    /**\n     * @dev Throws if called by any account other than the owner.\n     */\n    modifier onlyMember() {\n        require(_members[msg.sender], \"onlyMember\");\n        _;\n    }\n\n    /**\n     * @return Whether the address is a member.\n     */\n    function isMember(address addr) external view returns (bool) {\n        return _members[addr];\n    }\n\n    /**\n     * @return The maximum members allowed.\n     */\n    function maxMembers() external pure returns (uint8) {\n        return _maxMembers;\n    }\n\n    /**\n     * @return The current number of members.\n     */\n    function numMembers() external view returns (uint8) {\n        return _numMembers;\n    }\n\n    /**\n     * @dev Adds a new member.\n     * @param addr The address to add.\n     */\n    function addMember(address addr) external onlyOwner {\n        require(_numMembers < _maxMembers, \"exceeds the membership limit\");\n        require(_members[addr] == false, \"already a member\");\n        _members[addr] = true;\n        _numMembers += 1;\n        emit AddMember(addr);\n    }\n\n    /**\n     * @dev Removes an existing member.\n     * @param addr The address to remove.\n     */\n    function removeMember(address addr) external onlyOwner {\n        require(_members[addr] == true, \"not a member\");\n        _members[addr] = false;\n        _numMembers -= 1;\n        emit RemoveMember(addr);\n    }\n\n    // WAIT TIME\n\n    /**\n     * @return The minimum number of blocks a pending mint must wait before it can be sent.\n     */\n    function mintWaitBlocks() external view returns (uint256) {\n        return _mintWaitBlocks;\n    }\n\n    function setMintWaitBlocks(uint256 newMintWaitBlocks)\n        external\n        onlyOwner\n        returns (bool)\n    {\n        emit MintWaitBlocksUpdated(_mintWaitBlocks, newMintWaitBlocks);\n        _mintWaitBlocks = newMintWaitBlocks;\n\n        return true;\n    }\n\n    // MINT FUNCTIONALITY\n\n    /**\n     * @return The index of the next new pending mint.\n     */\n    function pendingMintsIndex() external view returns (uint256) {\n        return _pendingMintsIndex;\n    }\n\n    /**\n     * @dev Creates a mint proposal that must wait _mintWaitBlocks blocks before it can be executed.\n     * @param to The recipient of the minted tokens.\n     * @param value The number of tokens to mint.\n     * @return A uint256 that represents the index of the mint proposal.\n     */\n    function proposeMint(address to, uint256 value)\n        external\n        onlyMember\n        returns (uint256)\n    {\n        pendingMints[_pendingMintsIndex] = PendingMint(\n            to,\n            value,\n            0,\n            block.number + _mintWaitBlocks\n        );\n        emit MintProposed(msg.sender, _pendingMintsIndex);\n        uint256 proposedIndex = _pendingMintsIndex;\n        _pendingMintsIndex += 1;\n\n        return proposedIndex;\n    }\n\n    /**\n     * @dev Creates a mint proposal with a label that must wait _mintWaitBlocks blocks before it can be executed.\n     * @param to The recipient of the minted tokens.\n     * @param value The number of tokens to mint.\n     * @param label The label to mint under\n     * @return A uint256 that represents the index of the mint proposal.\n     */\n    function proposeMintForLabel(\n        address to,\n        uint256 value,\n        uint32 label\n    ) external onlyMember returns (uint256) {\n        pendingMints[_pendingMintsIndex] = PendingMint(\n            to,\n            value,\n            label,\n            block.number + _mintWaitBlocks\n        );\n        emit MintProposed(msg.sender, _pendingMintsIndex);\n        uint256 proposedIndex = _pendingMintsIndex;\n        _pendingMintsIndex += 1;\n\n        return proposedIndex;\n    }\n\n    /**\n     * @dev Executes a mint proposal that has waited sufficient blocks.\n     * @param index The index of the _pendingMints to execute.\n     * @return A boolean that indicates if the operation was successful.\n     */\n    function sendMint(uint256 index) external onlyMember returns (bool) {\n        require(\n            block.number >= pendingMints[index].canMintAtBlock,\n            \"cannot send mint until sufficient blocks have passed\"\n        );\n\n        _implementation.mintToForLabel(\n            pendingMints[index].recipient,\n            pendingMints[index].value,\n            pendingMints[index].label\n        );\n        emit MintSent(msg.sender, index);\n        delete pendingMints[index];\n\n        return true;\n    }\n\n    /**\n     * @dev Deletes the mint proposal, can be called by any issuer on any mint proposal, provides a check\n     * and balance on token minting.\n     * @param index The index of the _pendingMints to delete.\n     * @return A boolean that indicates if the operation was successful.\n     */\n    function rejectMint(uint256 index) external onlyMember returns (bool) {\n        require(\n            pendingMints[index].value > 0,\n            \"this pending mint does not exist\"\n        );\n\n        emit MintRejected(msg.sender, index);\n        delete pendingMints[index];\n\n        return true;\n    }\n\n    // OWNER FUNCTIONALITY\n\n    /**\n     * @dev Throws if called by any account other than the owner.\n     */\n    modifier onlyOwner() {\n        require(msg.sender == _owner, \"onlyOwner\");\n        _;\n    }\n\n    /**\n     * @dev Current owner\n     */\n    function owner() external view returns (address) {\n        return _owner;\n    }\n\n    /**\n     * @dev Proposed new owner\n     */\n    function proposedOwner() external view returns (address) {\n        return _proposedOwner;\n    }\n\n    /**\n     * @dev Allows the current owner to begin transferring control of the contract to a proposedOwner\n     * @param newProposedOwner The address to transfer ownership to.\n     */\n    function proposeOwner(address newProposedOwner) external onlyOwner {\n        require(\n            newProposedOwner != address(0),\n            \"cannot transfer ownership to address zero\"\n        );\n        require(msg.sender != newProposedOwner, \"caller already is owner\");\n\n        _proposedOwner = newProposedOwner;\n        emit OwnershipTransferProposed(_owner, _proposedOwner);\n    }\n\n    /**\n     * @dev Allows the current owner or proposed owner to cancel transferring control of the contract to a proposedOwner\n     */\n    function disregardProposeOwner() external {\n        require(\n            msg.sender == _proposedOwner || msg.sender == _owner,\n            \"only proposedOwner or owner\"\n        );\n        require(\n            _proposedOwner != address(0),\n            \"can only disregard a proposed owner that was previously set\"\n        );\n\n        address oldProposedOwner = _proposedOwner;\n        _proposedOwner = address(0);\n        emit OwnershipTransferDisregarded(oldProposedOwner);\n    }\n\n    /**\n     * @dev Allows the proposed owner to complete transferring control of the contract to the proposedOwner.\n     */\n    function claimOwnership() external {\n        require(msg.sender == _proposedOwner, \"onlyProposedOwner\");\n\n        address oldOwner = _owner;\n        _owner = _proposedOwner;\n        _proposedOwner = address(0);\n        emit OwnershipTransferred(oldOwner, _owner);\n    }\n\n    // LABEL MANAGEMENT\n\n    function addLabel(uint32 label) external onlyMember returns (bool) {\n        return _implementation.addLabel(label);\n    }\n\n    function removeLabel(uint32 label) external onlyMember returns (bool) {\n        return _implementation.removeLabel(label);\n    }\n}\n",
  "sourcePath": "/Users/dazheng/workspace/token-contracts/qusd-qtum/token/contracts/QUSDIssuer.sol",
  "compiler": {
    "name": "solc",
    "version": "0.6.12+commit.27d51765.Emscripten.clang"
  },
  "schemaVersion": "3.3.3",
  "updatedAt": "2021-02-17T08:51:35.585Z",
  "devdoc": {
    "details": "This contract will be the issuer for QUSD. It provides a check and balance on token issuance by requiring mints to be first proposed and a certain number of blocks to have passed before it can be executed. This gives other issuers a time to check that the issuance is valid and if not, reject the mint.",
    "kind": "dev",
    "methods": {
      "addMember(address)": {
        "details": "Adds a new member.",
        "params": {
          "addr": "The address to add."
        }
      },
      "claimOwnership()": {
        "details": "Allows the proposed owner to complete transferring control of the contract to the proposedOwner."
      },
      "disregardProposeOwner()": {
        "details": "Allows the current owner or proposed owner to cancel transferring control of the contract to a proposedOwner"
      },
      "implementation()": {
        "returns": {
          "_0": "The address of the implementation."
        }
      },
      "isMember(address)": {
        "returns": {
          "_0": "Whether the address is a member."
        }
      },
      "maxMembers()": {
        "returns": {
          "_0": "The maximum members allowed."
        }
      },
      "mintWaitBlocks()": {
        "returns": {
          "_0": "The minimum number of blocks a pending mint must wait before it can be sent."
        }
      },
      "numMembers()": {
        "returns": {
          "_0": "The current number of members."
        }
      },
      "owner()": {
        "details": "Current owner"
      },
      "pendingMintsIndex()": {
        "returns": {
          "_0": "The index of the next new pending mint."
        }
      },
      "proposeMint(address,uint256)": {
        "details": "Creates a mint proposal that must wait _mintWaitBlocks blocks before it can be executed.",
        "params": {
          "to": "The recipient of the minted tokens.",
          "value": "The number of tokens to mint."
        },
        "returns": {
          "_0": "A uint256 that represents the index of the mint proposal."
        }
      },
      "proposeMintForLabel(address,uint256,uint32)": {
        "details": "Creates a mint proposal with a label that must wait _mintWaitBlocks blocks before it can be executed.",
        "params": {
          "label": "The label to mint under",
          "to": "The recipient of the minted tokens.",
          "value": "The number of tokens to mint."
        },
        "returns": {
          "_0": "A uint256 that represents the index of the mint proposal."
        }
      },
      "proposeOwner(address)": {
        "details": "Allows the current owner to begin transferring control of the contract to a proposedOwner",
        "params": {
          "newProposedOwner": "The address to transfer ownership to."
        }
      },
      "proposedOwner()": {
        "details": "Proposed new owner"
      },
      "rejectMint(uint256)": {
        "details": "Deletes the mint proposal, can be called by any issuer on any mint proposal, provides a check and balance on token minting.",
        "params": {
          "index": "The index of the _pendingMints to delete."
        },
        "returns": {
          "_0": "A boolean that indicates if the operation was successful."
        }
      },
      "removeMember(address)": {
        "details": "Removes an existing member.",
        "params": {
          "addr": "The address to remove."
        }
      },
      "sendMint(uint256)": {
        "details": "Executes a mint proposal that has waited sufficient blocks.",
        "params": {
          "index": "The index of the _pendingMints to execute."
        },
        "returns": {
          "_0": "A boolean that indicates if the operation was successful."
        }
      },
      "setImplementation(address)": {
        "details": "Sets the implementation contract address.",
        "params": {
          "implementationAddress": "The address of the implementation to point to."
        }
      }
    },
    "title": "QUSDIssuer",
    "version": 1
  },
  "userdoc": {
    "kind": "user",
    "methods": {},
    "version": 1
  }
}