{
  "contractName": "QUSDImplementation",
  "abi": [
    {
      "anonymous": false,
      "inputs": [
        {
          "indexed": true,
          "internalType": "address",
          "name": "owner",
          "type": "address"
        },
        {
          "indexed": true,
          "internalType": "address",
          "name": "spender",
          "type": "address"
        },
        {
          "indexed": false,
          "internalType": "uint256",
          "name": "value",
          "type": "uint256"
        }
      ],
      "name": "Approval",
      "type": "event"
    },
    {
      "anonymous": false,
      "inputs": [
        {
          "indexed": true,
          "internalType": "address",
          "name": "from",
          "type": "address"
        },
        {
          "indexed": false,
          "internalType": "uint256",
          "name": "value",
          "type": "uint256"
        }
      ],
      "name": "Burn",
      "type": "event"
    },
    {
      "anonymous": false,
      "inputs": [
        {
          "indexed": false,
          "internalType": "string",
          "name": "oldName",
          "type": "string"
        },
        {
          "indexed": false,
          "internalType": "string",
          "name": "newName",
          "type": "string"
        }
      ],
      "name": "ChangeName",
      "type": "event"
    },
    {
      "anonymous": false,
      "inputs": [
        {
          "indexed": false,
          "internalType": "string",
          "name": "oldSymbol",
          "type": "string"
        },
        {
          "indexed": false,
          "internalType": "string",
          "name": "newSymbol",
          "type": "string"
        }
      ],
      "name": "ChangeSymbol",
      "type": "event"
    },
    {
      "anonymous": false,
      "inputs": [
        {
          "indexed": true,
          "internalType": "address",
          "name": "oldComplianceRole",
          "type": "address"
        },
        {
          "indexed": true,
          "internalType": "address",
          "name": "newComplianceRole",
          "type": "address"
        }
      ],
      "name": "ComplianceRoleSet",
      "type": "event"
    },
    {
      "anonymous": false,
      "inputs": [
        {
          "indexed": true,
          "internalType": "address",
          "name": "addr",
          "type": "address"
        }
      ],
      "name": "FreezeAddress",
      "type": "event"
    },
    {
      "anonymous": false,
      "inputs": [
        {
          "indexed": true,
          "internalType": "address",
          "name": "oldIssuer",
          "type": "address"
        },
        {
          "indexed": true,
          "internalType": "address",
          "name": "newIssuer",
          "type": "address"
        }
      ],
      "name": "IssuerSet",
      "type": "event"
    },
    {
      "anonymous": false,
      "inputs": [
        {
          "indexed": true,
          "internalType": "address",
          "name": "to",
          "type": "address"
        },
        {
          "indexed": false,
          "internalType": "uint256",
          "name": "value",
          "type": "uint256"
        }
      ],
      "name": "Mint",
      "type": "event"
    },
    {
      "anonymous": false,
      "inputs": [
        {
          "indexed": true,
          "internalType": "address",
          "name": "oldProposedOwner",
          "type": "address"
        }
      ],
      "name": "OwnershipTransferDisregarded",
      "type": "event"
    },
    {
      "anonymous": false,
      "inputs": [
        {
          "indexed": true,
          "internalType": "address",
          "name": "currentOwner",
          "type": "address"
        },
        {
          "indexed": true,
          "internalType": "address",
          "name": "proposedOwner",
          "type": "address"
        }
      ],
      "name": "OwnershipTransferProposed",
      "type": "event"
    },
    {
      "anonymous": false,
      "inputs": [
        {
          "indexed": true,
          "internalType": "address",
          "name": "oldOwner",
          "type": "address"
        },
        {
          "indexed": true,
          "internalType": "address",
          "name": "newOwner",
          "type": "address"
        }
      ],
      "name": "OwnershipTransferred",
      "type": "event"
    },
    {
      "anonymous": false,
      "inputs": [],
      "name": "Pause",
      "type": "event"
    },
    {
      "anonymous": false,
      "inputs": [
        {
          "indexed": false,
          "internalType": "uint32",
          "name": "label",
          "type": "uint32"
        }
      ],
      "name": "SetConsolidationLabel",
      "type": "event"
    },
    {
      "anonymous": false,
      "inputs": [
        {
          "indexed": false,
          "internalType": "uint256",
          "name": "threshold",
          "type": "uint256"
        }
      ],
      "name": "SetConsolidationThreshold",
      "type": "event"
    },
    {
      "anonymous": false,
      "inputs": [
        {
          "indexed": true,
          "internalType": "address",
          "name": "from",
          "type": "address"
        },
        {
          "indexed": true,
          "internalType": "address",
          "name": "to",
          "type": "address"
        },
        {
          "indexed": false,
          "internalType": "uint256",
          "name": "value",
          "type": "uint256"
        }
      ],
      "name": "Transfer",
      "type": "event"
    },
    {
      "anonymous": false,
      "inputs": [
        {
          "indexed": true,
          "internalType": "address",
          "name": "addr",
          "type": "address"
        }
      ],
      "name": "UnfreezeAddress",
      "type": "event"
    },
    {
      "anonymous": false,
      "inputs": [],
      "name": "Unpause",
      "type": "event"
    },
    {
      "anonymous": false,
      "inputs": [
        {
          "indexed": true,
          "internalType": "address",
          "name": "addr",
          "type": "address"
        }
      ],
      "name": "WipeFrozenAddress",
      "type": "event"
    },
    {
      "inputs": [],
      "name": "_consolidationThreshold",
      "outputs": [
        {
          "internalType": "uint256",
          "name": "",
          "type": "uint256"
        }
      ],
      "stateMutability": "view",
      "type": "function"
    },
    {
      "inputs": [
        {
          "internalType": "uint32",
          "name": "",
          "type": "uint32"
        }
      ],
      "name": "_labelExistence",
      "outputs": [
        {
          "internalType": "bool",
          "name": "",
          "type": "bool"
        }
      ],
      "stateMutability": "view",
      "type": "function"
    },
    {
      "inputs": [
        {
          "internalType": "uint32",
          "name": "",
          "type": "uint32"
        }
      ],
      "name": "_labelSupply",
      "outputs": [
        {
          "internalType": "uint256",
          "name": "",
          "type": "uint256"
        }
      ],
      "stateMutability": "view",
      "type": "function"
    },
    {
      "inputs": [
        {
          "internalType": "uint32",
          "name": "",
          "type": "uint32"
        },
        {
          "internalType": "address",
          "name": "",
          "type": "address"
        }
      ],
      "name": "_labelUserBalances",
      "outputs": [
        {
          "internalType": "uint256",
          "name": "",
          "type": "uint256"
        }
      ],
      "stateMutability": "view",
      "type": "function"
    },
    {
      "inputs": [
        {
          "internalType": "uint32",
          "name": "",
          "type": "uint32"
        },
        {
          "internalType": "address",
          "name": "",
          "type": "address"
        }
      ],
      "name": "_labelUserExistence",
      "outputs": [
        {
          "internalType": "bool",
          "name": "",
          "type": "bool"
        }
      ],
      "stateMutability": "view",
      "type": "function"
    },
    {
      "inputs": [],
      "name": "initialize",
      "outputs": [],
      "stateMutability": "nonpayable",
      "type": "function"
    },
    {
      "inputs": [],
      "name": "name",
      "outputs": [
        {
          "internalType": "string",
          "name": "",
          "type": "string"
        }
      ],
      "stateMutability": "view",
      "type": "function"
    },
    {
      "inputs": [
        {
          "internalType": "string",
          "name": "newName",
          "type": "string"
        }
      ],
      "name": "changeName",
      "outputs": [
        {
          "internalType": "bool",
          "name": "",
          "type": "bool"
        }
      ],
      "stateMutability": "nonpayable",
      "type": "function"
    },
    {
      "inputs": [],
      "name": "symbol",
      "outputs": [
        {
          "internalType": "string",
          "name": "",
          "type": "string"
        }
      ],
      "stateMutability": "view",
      "type": "function"
    },
    {
      "inputs": [
        {
          "internalType": "string",
          "name": "newSymbol",
          "type": "string"
        }
      ],
      "name": "changeSymbol",
      "outputs": [
        {
          "internalType": "bool",
          "name": "",
          "type": "bool"
        }
      ],
      "stateMutability": "nonpayable",
      "type": "function"
    },
    {
      "inputs": [],
      "name": "decimals",
      "outputs": [
        {
          "internalType": "uint8",
          "name": "",
          "type": "uint8"
        }
      ],
      "stateMutability": "pure",
      "type": "function"
    },
    {
      "inputs": [],
      "name": "totalSupply",
      "outputs": [
        {
          "internalType": "uint256",
          "name": "",
          "type": "uint256"
        }
      ],
      "stateMutability": "view",
      "type": "function"
    },
    {
      "inputs": [
        {
          "internalType": "address",
          "name": "addr",
          "type": "address"
        }
      ],
      "name": "balanceOf",
      "outputs": [
        {
          "internalType": "uint256",
          "name": "",
          "type": "uint256"
        }
      ],
      "stateMutability": "view",
      "type": "function"
    },
    {
      "inputs": [
        {
          "internalType": "address",
          "name": "spender",
          "type": "address"
        },
        {
          "internalType": "uint256",
          "name": "value",
          "type": "uint256"
        }
      ],
      "name": "approve",
      "outputs": [
        {
          "internalType": "bool",
          "name": "",
          "type": "bool"
        }
      ],
      "stateMutability": "nonpayable",
      "type": "function"
    },
    {
      "inputs": [
        {
          "internalType": "address",
          "name": "spender",
          "type": "address"
        },
        {
          "internalType": "uint256",
          "name": "addedValue",
          "type": "uint256"
        }
      ],
      "name": "increaseAllowance",
      "outputs": [
        {
          "internalType": "bool",
          "name": "",
          "type": "bool"
        }
      ],
      "stateMutability": "nonpayable",
      "type": "function"
    },
    {
      "inputs": [
        {
          "internalType": "address",
          "name": "spender",
          "type": "address"
        },
        {
          "internalType": "uint256",
          "name": "subtractedValue",
          "type": "uint256"
        }
      ],
      "name": "decreaseAllowance",
      "outputs": [
        {
          "internalType": "bool",
          "name": "",
          "type": "bool"
        }
      ],
      "stateMutability": "nonpayable",
      "type": "function"
    },
    {
      "inputs": [
        {
          "internalType": "address",
          "name": "owner",
          "type": "address"
        },
        {
          "internalType": "address",
          "name": "spender",
          "type": "address"
        }
      ],
      "name": "allowance",
      "outputs": [
        {
          "internalType": "uint256",
          "name": "",
          "type": "uint256"
        }
      ],
      "stateMutability": "view",
      "type": "function"
    },
    {
      "inputs": [
        {
          "internalType": "address",
          "name": "to",
          "type": "address"
        },
        {
          "internalType": "uint256",
          "name": "value",
          "type": "uint256"
        }
      ],
      "name": "transfer",
      "outputs": [
        {
          "internalType": "bool",
          "name": "",
          "type": "bool"
        }
      ],
      "stateMutability": "nonpayable",
      "type": "function"
    },
    {
      "inputs": [
        {
          "internalType": "address",
          "name": "to",
          "type": "address"
        },
        {
          "internalType": "uint256",
          "name": "value",
          "type": "uint256"
        },
        {
          "internalType": "uint32",
          "name": "label",
          "type": "uint32"
        }
      ],
      "name": "transferForLabel",
      "outputs": [
        {
          "internalType": "bool",
          "name": "",
          "type": "bool"
        }
      ],
      "stateMutability": "nonpayable",
      "type": "function"
    },
    {
      "inputs": [
        {
          "internalType": "address",
          "name": "from",
          "type": "address"
        },
        {
          "internalType": "address",
          "name": "to",
          "type": "address"
        },
        {
          "internalType": "uint256",
          "name": "value",
          "type": "uint256"
        }
      ],
      "name": "transferFrom",
      "outputs": [
        {
          "internalType": "bool",
          "name": "",
          "type": "bool"
        }
      ],
      "stateMutability": "nonpayable",
      "type": "function"
    },
    {
      "inputs": [],
      "name": "owner",
      "outputs": [
        {
          "internalType": "address",
          "name": "",
          "type": "address"
        }
      ],
      "stateMutability": "view",
      "type": "function"
    },
    {
      "inputs": [],
      "name": "proposedOwner",
      "outputs": [
        {
          "internalType": "address",
          "name": "",
          "type": "address"
        }
      ],
      "stateMutability": "view",
      "type": "function"
    },
    {
      "inputs": [
        {
          "internalType": "address",
          "name": "newProposedOwner",
          "type": "address"
        }
      ],
      "name": "proposeOwner",
      "outputs": [],
      "stateMutability": "nonpayable",
      "type": "function"
    },
    {
      "inputs": [],
      "name": "disregardProposeOwner",
      "outputs": [],
      "stateMutability": "nonpayable",
      "type": "function"
    },
    {
      "inputs": [],
      "name": "claimOwnership",
      "outputs": [],
      "stateMutability": "nonpayable",
      "type": "function"
    },
    {
      "inputs": [],
      "name": "paused",
      "outputs": [
        {
          "internalType": "bool",
          "name": "",
          "type": "bool"
        }
      ],
      "stateMutability": "view",
      "type": "function"
    },
    {
      "inputs": [],
      "name": "pause",
      "outputs": [],
      "stateMutability": "nonpayable",
      "type": "function"
    },
    {
      "inputs": [],
      "name": "unpause",
      "outputs": [],
      "stateMutability": "nonpayable",
      "type": "function"
    },
    {
      "inputs": [],
      "name": "complianceRole",
      "outputs": [
        {
          "internalType": "address",
          "name": "",
          "type": "address"
        }
      ],
      "stateMutability": "view",
      "type": "function"
    },
    {
      "inputs": [
        {
          "internalType": "address",
          "name": "addr",
          "type": "address"
        }
      ],
      "name": "frozen",
      "outputs": [
        {
          "internalType": "bool",
          "name": "",
          "type": "bool"
        }
      ],
      "stateMutability": "view",
      "type": "function"
    },
    {
      "inputs": [
        {
          "internalType": "address",
          "name": "newComplianceRole",
          "type": "address"
        }
      ],
      "name": "setComplianceRole",
      "outputs": [],
      "stateMutability": "nonpayable",
      "type": "function"
    },
    {
      "inputs": [
        {
          "internalType": "address",
          "name": "addr",
          "type": "address"
        }
      ],
      "name": "freeze",
      "outputs": [],
      "stateMutability": "nonpayable",
      "type": "function"
    },
    {
      "inputs": [
        {
          "internalType": "address",
          "name": "addr",
          "type": "address"
        }
      ],
      "name": "unfreeze",
      "outputs": [],
      "stateMutability": "nonpayable",
      "type": "function"
    },
    {
      "inputs": [
        {
          "internalType": "address",
          "name": "addr",
          "type": "address"
        }
      ],
      "name": "wipeFrozenAddress",
      "outputs": [],
      "stateMutability": "nonpayable",
      "type": "function"
    },
    {
      "inputs": [],
      "name": "issuer",
      "outputs": [
        {
          "internalType": "address",
          "name": "",
          "type": "address"
        }
      ],
      "stateMutability": "view",
      "type": "function"
    },
    {
      "inputs": [
        {
          "internalType": "address",
          "name": "newIssuer",
          "type": "address"
        }
      ],
      "name": "setIssuer",
      "outputs": [],
      "stateMutability": "nonpayable",
      "type": "function"
    },
    {
      "inputs": [
        {
          "internalType": "uint256",
          "name": "value",
          "type": "uint256"
        }
      ],
      "name": "mint",
      "outputs": [
        {
          "internalType": "bool",
          "name": "",
          "type": "bool"
        }
      ],
      "stateMutability": "nonpayable",
      "type": "function"
    },
    {
      "inputs": [
        {
          "internalType": "uint256",
          "name": "value",
          "type": "uint256"
        },
        {
          "internalType": "uint32",
          "name": "label",
          "type": "uint32"
        }
      ],
      "name": "mintForLabel",
      "outputs": [
        {
          "internalType": "bool",
          "name": "success",
          "type": "bool"
        }
      ],
      "stateMutability": "nonpayable",
      "type": "function"
    },
    {
      "inputs": [
        {
          "internalType": "address",
          "name": "to",
          "type": "address"
        },
        {
          "internalType": "uint256",
          "name": "value",
          "type": "uint256"
        }
      ],
      "name": "mintTo",
      "outputs": [
        {
          "internalType": "bool",
          "name": "",
          "type": "bool"
        }
      ],
      "stateMutability": "nonpayable",
      "type": "function"
    },
    {
      "inputs": [
        {
          "internalType": "address",
          "name": "to",
          "type": "address"
        },
        {
          "internalType": "uint256",
          "name": "value",
          "type": "uint256"
        },
        {
          "internalType": "uint32",
          "name": "label",
          "type": "uint32"
        }
      ],
      "name": "mintToForLabel",
      "outputs": [
        {
          "internalType": "bool",
          "name": "",
          "type": "bool"
        }
      ],
      "stateMutability": "nonpayable",
      "type": "function"
    },
    {
      "inputs": [
        {
          "internalType": "uint256",
          "name": "value",
          "type": "uint256"
        }
      ],
      "name": "burn",
      "outputs": [
        {
          "internalType": "bool",
          "name": "",
          "type": "bool"
        }
      ],
      "stateMutability": "nonpayable",
      "type": "function"
    },
    {
      "inputs": [
        {
          "internalType": "uint256",
          "name": "value",
          "type": "uint256"
        },
        {
          "internalType": "uint32",
          "name": "label",
          "type": "uint32"
        }
      ],
      "name": "burnForLabel",
      "outputs": [
        {
          "internalType": "bool",
          "name": "",
          "type": "bool"
        }
      ],
      "stateMutability": "nonpayable",
      "type": "function"
    },
    {
      "inputs": [
        {
          "internalType": "address",
          "name": "from",
          "type": "address"
        },
        {
          "internalType": "uint256",
          "name": "value",
          "type": "uint256"
        }
      ],
      "name": "burnFrom",
      "outputs": [
        {
          "internalType": "bool",
          "name": "",
          "type": "bool"
        }
      ],
      "stateMutability": "nonpayable",
      "type": "function"
    },
    {
      "inputs": [
        {
          "internalType": "uint32",
          "name": "label",
          "type": "uint32"
        }
      ],
      "name": "labelSupply",
      "outputs": [
        {
          "internalType": "uint256",
          "name": "",
          "type": "uint256"
        }
      ],
      "stateMutability": "view",
      "type": "function"
    },
    {
      "inputs": [
        {
          "internalType": "address",
          "name": "addr",
          "type": "address"
        },
        {
          "internalType": "uint32",
          "name": "label",
          "type": "uint32"
        }
      ],
      "name": "labelBalanceOf",
      "outputs": [
        {
          "internalType": "uint256",
          "name": "",
          "type": "uint256"
        }
      ],
      "stateMutability": "view",
      "type": "function"
    },
    {
      "inputs": [
        {
          "internalType": "uint256",
          "name": "newConsolidationThreshold",
          "type": "uint256"
        }
      ],
      "name": "setConsolidationThreshold",
      "outputs": [
        {
          "internalType": "bool",
          "name": "",
          "type": "bool"
        }
      ],
      "stateMutability": "nonpayable",
      "type": "function"
    },
    {
      "inputs": [
        {
          "internalType": "uint32",
          "name": "newConsolidationLabel",
          "type": "uint32"
        }
      ],
      "name": "setConsolidationLabel",
      "outputs": [
        {
          "internalType": "bool",
          "name": "",
          "type": "bool"
        }
      ],
      "stateMutability": "nonpayable",
      "type": "function"
    },
    {
      "inputs": [],
      "name": "consolidationLabel",
      "outputs": [
        {
          "internalType": "uint32",
          "name": "",
          "type": "uint32"
        }
      ],
      "stateMutability": "view",
      "type": "function"
    },
    {
      "inputs": [
        {
          "internalType": "address",
          "name": "addr",
          "type": "address"
        },
        {
          "internalType": "uint32",
          "name": "label",
          "type": "uint32"
        }
      ],
      "name": "balanceOfUserForLabel",
      "outputs": [
        {
          "internalType": "uint256",
          "name": "",
          "type": "uint256"
        }
      ],
      "stateMutability": "view",
      "type": "function"
    },
    {
      "inputs": [
        {
          "internalType": "uint32",
          "name": "label",
          "type": "uint32"
        }
      ],
      "name": "addLabel",
      "outputs": [
        {
          "internalType": "bool",
          "name": "",
          "type": "bool"
        }
      ],
      "stateMutability": "nonpayable",
      "type": "function"
    },
    {
      "inputs": [
        {
          "internalType": "uint32",
          "name": "label",
          "type": "uint32"
        }
      ],
      "name": "removeLabel",
      "outputs": [
        {
          "internalType": "bool",
          "name": "",
          "type": "bool"
        }
      ],
      "stateMutability": "nonpayable",
      "type": "function"
    },
    {
      "inputs": [
        {
          "internalType": "address",
          "name": "user",
          "type": "address"
        }
      ],
      "name": "userLabelQueueLength",
      "outputs": [
        {
          "internalType": "uint256",
          "name": "",
          "type": "uint256"
        }
      ],
      "stateMutability": "view",
      "type": "function"
    }
  ],
  "bytecode": "0x608060405234801561001057600080fd5b5061387a806100206000396000f3fe608060405234801561001057600080fd5b506004361061030c5760003560e01c80638129fc1c1161019d578063bf100fb3116100e9578063dd62ed3e116100a2578063e68ff5181161007c578063e68ff51814610a64578063e9187c8714610a9c578063f6dc848a14610ac2578063fc573a3a14610ae55761030c565b8063dd62ed3e146109ed578063dff8a9cf14610a1b578063e2f72f0314610a3e5761030c565b8063bf100fb314610915578063cdf6598414610932578063d05166501461096a578063d153b60c14610990578063d409070314610998578063d490fe8e146109ca5761030c565b806395d89b4111610156578063a457c2d711610130578063a457c2d714610874578063a9059cbb146108a0578063b5ed298a146108cc578063b60bf56d146108f25761030c565b806395d89b41146107a9578063a0712d68146107b1578063a3895fff146107ce5761030c565b80638129fc1c1461073d57806382ac5a0d146107455780638456cb591461076b5780638d1fdf2f146107735780638da5cb5b146107995780638ee98d8d146107a15761030c565b806345c8b1a61161025c5780635c975abb1161021557806370a08231116101ef57806370a08231146106c257806379cc6790146106e85780637cb8e93b1461044c5780637d91a930146107145761030c565b80635c975abb1461066e57806365240ece1461067657806365bf43541461069f5761030c565b806345c8b1a61461054b5780634e71e0c814610571578063519dd153146105795780635353a2d81461058157806355cc4e57146106275780635bca4d571461064d5761030c565b806326ea99d9116102c957806339509351116102a357806339509351146104ce5780633f4ba83a146104fa57806342966c6814610502578063449a52f81461051f5761030c565b806326ea99d91461044c578063297a1a7b1461047e578063313ce567146104b05761030c565b806303acb4481461031157806306fdde031461031b578063095ea7b31461039857806318160ddd146103d85780631d143848146103f257806323b872dd14610416575b600080fd5b610319610b08565b005b610323610c0d565b6040805160208082528351818301528351919283929083019185019080838360005b8381101561035d578181015183820152602001610345565b50505050905090810190601f16801561038a5780820380516001836020036101000a031916815260200191505b509250505060405180910390f35b6103c4600480360360408110156103ae57600080fd5b506001600160a01b038135169060200135610ca2565b604080519115158252519081900360200190f35b6103e0610d08565b60408051918252519081900360200190f35b6103fa610d0e565b604080516001600160a01b039092168252519081900360200190f35b6103c46004803603606081101561042c57600080fd5b506001600160a01b03813581169160208101359091169060400135610d1d565b6103e06004803603604081101561046257600080fd5b5080356001600160a01b0316906020013563ffffffff16610e80565b6103c46004803603604081101561049457600080fd5b50803563ffffffff1690602001356001600160a01b0316610ead565b6104b8610ecd565b6040805160ff9092168252519081900360200190f35b6103c4600480360360408110156104e457600080fd5b506001600160a01b038135169060200135610ed2565b610319610f5e565b6103c46004803603602081101561051857600080fd5b5035611031565b6103c46004803603604081101561053557600080fd5b506001600160a01b03813516906020013561113c565b6103196004803603602081101561056157600080fd5b50356001600160a01b03166111a1565b6103196112b7565b6103fa611370565b6103c46004803603602081101561059757600080fd5b8101906020810181356401000000008111156105b257600080fd5b8201836020820111156105c457600080fd5b803590602001918460018302840111640100000000831117156105e657600080fd5b91908080601f01602080910402602001604051908101604052809392919081815260200183838082843760009201919091525092955061137f945050505050565b6103196004803603602081101561063d57600080fd5b50356001600160a01b03166114f2565b6106556115dc565b6040805163ffffffff9092168252519081900360200190f35b6103c46115e8565b6103c46004803603604081101561068c57600080fd5b508035906020013563ffffffff166115f8565b6103c4600480360360208110156106b557600080fd5b503563ffffffff16611652565b6103e0600480360360208110156106d857600080fd5b50356001600160a01b03166116c3565b6103c4600480360360408110156106fe57600080fd5b506001600160a01b0381351690602001356116de565b6103c46004803603604081101561072a57600080fd5b508035906020013563ffffffff166118ed565b6103196119f1565b6103196004803603602081101561075b57600080fd5b50356001600160a01b0316611b69565b610319611c39565b6103196004803603602081101561078957600080fd5b50356001600160a01b0316611d11565b6103fa611e24565b6103e0611e33565b610323611e39565b6103c4600480360360208110156107c757600080fd5b5035611e97565b6103c4600480360360208110156107e457600080fd5b8101906020810181356401000000008111156107ff57600080fd5b82018360208201111561081157600080fd5b8035906020019184600183028401116401000000008311171561083357600080fd5b91908080601f016020809104026020016040519081016040528093929190818152602001838380828437600092019190915250929550611efc945050505050565b6103c46004803603604081101561088a57600080fd5b506001600160a01b03813516906020013561206e565b6103c4600480360360408110156108b657600080fd5b506001600160a01b0381351690602001356120f5565b610319600480360360208110156108e257600080fd5b50356001600160a01b0316612180565b6103e06004803603602081101561090857600080fd5b503563ffffffff166122c8565b6103c46004803603602081101561092b57600080fd5b50356122e0565b6103c46004803603606081101561094857600080fd5b5080356001600160a01b0316906020810135906040013563ffffffff16612368565b6103c46004803603602081101561098057600080fd5b50356001600160a01b03166123c2565b6103fa6123e0565b6103e0600480360360408110156109ae57600080fd5b50803563ffffffff1690602001356001600160a01b03166123ef565b6103c4600480360360208110156109e057600080fd5b503563ffffffff1661240c565b6103e060048036036040811015610a0357600080fd5b506001600160a01b0381358116916020013516612421565b6103e060048036036020811015610a3157600080fd5b503563ffffffff1661244c565b61031960048036036020811015610a5457600080fd5b50356001600160a01b031661245e565b6103c460048036036060811015610a7a57600080fd5b5080356001600160a01b0316906020810135906040013563ffffffff166125ea565b6103e060048036036020811015610ab257600080fd5b50356001600160a01b0316612676565b6103c460048036036020811015610ad857600080fd5b503563ffffffff166126a1565b6103c460048036036020811015610afb57600080fd5b503563ffffffff16612716565b6010546001600160a01b0316331480610b2b5750600f546001600160a01b031633145b610b7c576040805162461bcd60e51b815260206004820152601b60248201527f6f6e6c792070726f706f7365644f776e6572206f72206f776e65720000000000604482015290519081900360640190fd5b6010546001600160a01b0316610bc35760405162461bcd60e51b815260040180806020018281038252603b81526020018061380a603b913960400191505060405180910390fd5b6010546040516001600160a01b03909116907f24f4590b0077912a4db89e7430de7986175c27bede1b47ee039e3b421c2e798e90600090a2601080546001600160a01b0319169055565b60018054604080516020601f60026000196101008789161502019095169490940493840181900481028201810190925282815260609390929091830182828015610c985780601f10610c6d57610100808354040283529160200191610c98565b820191906000526020600020905b815481529060010190602001808311610c7b57829003601f168201915b5050505050905090565b601054600090600160a01b900460ff1615610cf4576040805162461bcd60e51b815260206004820152600d60248201526c1dda195b939bdd14185d5cd959609a1b604482015290519081900360640190fd5b610cff3384846127ba565b50600192915050565b60035490565b6013546001600160a01b031690565b601054600090600160a01b900460ff1615610d6f576040805162461bcd60e51b815260206004820152600d60248201526c1dda195b939bdd14185d5cd959609a1b604482015290519081900360640190fd5b6001600160a01b0384166000908152600460209081526040808320338452909152902054821115610de0576040805162461bcd60e51b8152602060048201526016602482015275696e73756666696369656e7420616c6c6f77616e636560501b604482015290519081900360640190fd5b826001600160a01b0316846001600160a01b03166000805160206137a5833981519152846040518082815260200191505060405180910390a36001600160a01b0384166000908152600460209081526040808320338452909152902054610e4790836128fa565b6001600160a01b0385166000908152600460209081526040808320338452909152902055610e76848484612957565b5060019392505050565b63ffffffff166000908152600a602090815260408083206001600160a01b03949094168352929052205490565b600b60209081526000928352604080842090915290825290205460ff1681565b600690565b601054600090600160a01b900460ff1615610f24576040805162461bcd60e51b815260206004820152600d60248201526c1dda195b939bdd14185d5cd959609a1b604482015290519081900360640190fd5b3360008181526004602090815260408083206001600160a01b0388168452909152902054610cff91908590610f599086612a38565b6127ba565b600f546001600160a01b03163314610fa75760405162461bcd60e51b81526004018080602001828103825260258152602001806137c56025913960400191505060405180910390fd5b601054600160a01b900460ff16610ff9576040805162461bcd60e51b8152602060048201526011602482015270185b1c9958591e481d5b97dc185d5cd959607a1b604482015290519081900360640190fd5b6040517f7805862f689e2f13df9f062ff482ad3ad112aca9e0847911ed832e158c525b3390600090a16010805460ff60a01b19169055565b3360009081526012602052604081205460ff1615611087576040805162461bcd60e51b815260206004820152600e60248201526d30b2323932b9b990333937bd32b760911b604482015290519081900360640190fd5b336000908152600c60205260409020548211156110e0576040805162461bcd60e51b8152602060048201526012602482015271696e73756666696369656e742066756e647360701b604482015290519081900360640190fd5b60408051838152905133916000805160206137ea833981519152919081900360200190a260408051838152905160009133916000805160206137a58339815191529181900360200190a36111343383612a99565b506001919050565b6013546000906001600160a01b0316331461118b576040805162461bcd60e51b815260206004820152600a60248201526937b7363ca4b9b9bab2b960b11b604482015290519081900360640190fd5b600d54610cff908490849063ffffffff16612b0d565b6011546001600160a01b031633146111f5576040805162461bcd60e51b81526020600482015260126024820152716f6e6c79436f6d706c69616e6365526f6c6560701b604482015290519081900360640190fd5b6001600160a01b03811660009081526012602052604090205460ff16611262576040805162461bcd60e51b815260206004820152601860248201527f6164647265737320616c726561647920756e66726f7a656e0000000000000000604482015290519081900360640190fd5b6040516001600160a01b038216907f150465b020dfc06a59269da94ed66db9b65a516cf4fdd5f583b0f12752339bbe90600090a26001600160a01b03166000908152601260205260409020805460ff19169055565b6010546001600160a01b0316331461130a576040805162461bcd60e51b815260206004820152601160248201527037b7363ca83937b837b9b2b227bbb732b960791b604482015290519081900360640190fd5b601054600f546040516001600160a01b0392831692909116907f8be0079c531659141344cd1fd0a4f28419497f9722a3daafe3b4186f6b6457e090600090a360108054600f80546001600160a01b03199081166001600160a01b03841617909155169055565b6011546001600160a01b031690565b600f546000906001600160a01b031633146113cb5760405162461bcd60e51b81526004018080602001828103825260258152602001806137c56025913960400191505060405180910390fd5b60408051818152600180546002600019610100838516150201909116049282018390527f2d7b1f4f6d27f869e195082b9a6bf453549d64dc84a5b42b6fda8cce310e350092909185918190602082019060608301908690801561146f5780601f106114445761010080835404028352916020019161146f565b820191906000526020600020905b81548152906001019060200180831161145257829003601f168201915b5050838103825284518152845160209182019186019080838360005b838110156114a357818101518382015260200161148b565b50505050905090810190601f1680156114d05780820380516001836020036101000a031916815260200191505b5094505050505060405180910390a18151610cff906001906020850190613670565b600f546001600160a01b0316331461153b5760405162461bcd60e51b81526004018080602001828103825260258152602001806137c56025913960400191505060405180910390fd5b6001600160a01b0381166115805760405162461bcd60e51b815260040180806020018281038252602181526020018061372d6021913960400191505060405180910390fd5b6013546040516001600160a01b038084169216907ff7189b85d7899f5a32d733e6584c4f1dcdff0274f09d969d186c1797673ede1190600090a3601380546001600160a01b0319166001600160a01b0392909216919091179055565b600d5463ffffffff1690565b601054600160a01b900460ff1690565b6013546000906001600160a01b03163314611647576040805162461bcd60e51b815260206004820152600a60248201526937b7363ca4b9b9bab2b960b11b604482015290519081900360640190fd5b610cff338484612b0d565b6013546000906001600160a01b031633146116a1576040805162461bcd60e51b815260206004820152600a60248201526937b7363ca4b9b9bab2b960b11b604482015290519081900360640190fd5b5063ffffffff166000908152600560205260409020805460ff19169055600190565b6001600160a01b03166000908152600c602052604090205490565b6001600160a01b03821660009081526012602052604081205460ff1615801561171757503360009081526012602052604090205460ff16155b611759576040805162461bcd60e51b815260206004820152600e60248201526d30b2323932b9b990333937bd32b760911b604482015290519081900360640190fd5b6001600160a01b0383166000908152600c60205260409020548211156117bb576040805162461bcd60e51b8152602060048201526012602482015271696e73756666696369656e742066756e647360701b604482015290519081900360640190fd5b6001600160a01b038316600090815260046020908152604080832033845290915290205482111561182c576040805162461bcd60e51b8152602060048201526016602482015275696e73756666696369656e7420616c6c6f77616e636560501b604482015290519081900360640190fd5b6040805183815290516001600160a01b038516916000805160206137ea833981519152919081900360200190a26040805183815290516000916001600160a01b038616916000805160206137a58339815191529181900360200190a36118928383612a99565b6001600160a01b03831660009081526004602090815260408083203384529091529020546118c090836128fa565b6001600160a01b038416600090815260046020908152604080832033845290915290205550600192915050565b3360009081526012602052604081205460ff1615611943576040805162461bcd60e51b815260206004820152600e60248201526d30b2323932b9b990333937bd32b760911b604482015290519081900360640190fd5b336000908152600c602052604090205483111561199c576040805162461bcd60e51b8152602060048201526012602482015271696e73756666696369656e742066756e647360701b604482015290519081900360640190fd5b60408051848152905133916000805160206137ea833981519152919081900360200190a260408051848152905160009133916000805160206137a58339815191529181900360200190a3610cff338484612dec565b600054610100900460ff1680611a0a5750611a0a612f01565b80611a18575060005460ff16155b611a535760405162461bcd60e51b815260040180806020018281038252602e81526020018061374e602e913960400191505060405180910390fd5b600054610100900460ff16158015611a7e576000805460ff1961ff0019909116610100171660011790555b60408051808201909152600480825263145554d160e21b6020909201918252611aa991600191613670565b5060408051808201909152600480825263145554d160e21b6020909201918252611ad591600291613670565b50600f8054336001600160a01b031991821681179092556010805482169055601180548216905560006003819055601380549092169092179055600d805463ffffffff19169055600e819055805260056020527f05b8ccbb9d4d8fb16ea74ce3c29a41f1b461fbdaff4714a0d9a8eb05499746bc805460ff191660011790558015611b66576000805461ff00191690555b50565b6011546001600160a01b0316331480611b8c5750600f546001600160a01b031633145b611bdd576040805162461bcd60e51b815260206004820152601c60248201527f6f6e6c7920636f6d706c69616e6365526f6c65206f72204f776e657200000000604482015290519081900360640190fd5b6011546040516001600160a01b038084169216907f31b58ff3d01f61690b2faab8df1864d6eee3f4d17434dbcdb436136d8deb2d2f90600090a3601180546001600160a01b0319166001600160a01b0392909216919091179055565b600f546001600160a01b03163314611c825760405162461bcd60e51b81526004018080602001828103825260258152602001806137c56025913960400191505060405180910390fd5b601054600160a01b900460ff1615611cd3576040805162461bcd60e51b815260206004820152600f60248201526e185b1c9958591e4817dc185d5cd959608a1b604482015290519081900360640190fd5b6040517f6985a02210a168e66602d3235cb6db0e70f92b3ba4d376a33c0f3d9434bff62590600090a16010805460ff60a01b1916600160a01b179055565b6011546001600160a01b03163314611d65576040805162461bcd60e51b81526020600482015260126024820152716f6e6c79436f6d706c69616e6365526f6c6560701b604482015290519081900360640190fd5b6001600160a01b03811660009081526012602052604090205460ff1615611dcc576040805162461bcd60e51b815260206004820152601660248201527530b2323932b9b99030b63932b0b23c90333937bd32b760511b604482015290519081900360640190fd5b6040516001600160a01b038216907f1aa660498c83ea285bc55e4cfc00afcaa7120798db87b74f3c0d7c6e001bc39290600090a26001600160a01b03166000908152601260205260409020805460ff19166001179055565b600f546001600160a01b031690565b600e5481565b60028054604080516020601f6000196101006001871615020190941685900493840181900481028201810190925282815260609390929091830182828015610c985780601f10610c6d57610100808354040283529160200191610c98565b6013546000906001600160a01b03163314611ee6576040805162461bcd60e51b815260206004820152600a60248201526937b7363ca4b9b9bab2b960b11b604482015290519081900360640190fd5b600d54611134903390849063ffffffff16612b0d565b600f546000906001600160a01b03163314611f485760405162461bcd60e51b81526004018080602001828103825260258152602001806137c56025913960400191505060405180910390fd5b604080518181526002805460001961010060018316150201168190049282018390527f806a6e005472cc90843a95b21aa3c479e659c58703106d29d324e505089437d2929091859181906020820190606083019086908015611feb5780601f10611fc057610100808354040283529160200191611feb565b820191906000526020600020905b815481529060010190602001808311611fce57829003601f168201915b5050838103825284518152845160209182019186019080838360005b8381101561201f578181015183820152602001612007565b50505050905090810190601f16801561204c5780820380516001836020036101000a031916815260200191505b5094505050505060405180910390a18151610cff906002906020850190613670565b601054600090600160a01b900460ff16156120c0576040805162461bcd60e51b815260206004820152600d60248201526c1dda195b939bdd14185d5cd959609a1b604482015290519081900360640190fd5b3360008181526004602090815260408083206001600160a01b0388168452909152902054610cff91908590610f5990866128fa565b601054600090600160a01b900460ff1615612147576040805162461bcd60e51b815260206004820152600d60248201526c1dda195b939bdd14185d5cd959609a1b604482015290519081900360640190fd5b6040805183815290516001600160a01b0385169133916000805160206137a58339815191529181900360200190a3610cff338484612957565b600f546001600160a01b031633146121c95760405162461bcd60e51b81526004018080602001828103825260258152602001806137c56025913960400191505060405180910390fd5b6001600160a01b03811661220e5760405162461bcd60e51b81526004018080602001828103825260298152602001806137046029913960400191505060405180910390fd5b336001600160a01b038216141561226c576040805162461bcd60e51b815260206004820152601760248201527f63616c6c657220616c7265616479206973206f776e6572000000000000000000604482015290519081900360640190fd5b600f546040516001600160a01b038084169216907ff4e75b79500ab730f8a026ed3cba6d55331bcb64c9e9f60c548e371356e5e3c090600090a3601080546001600160a01b0319166001600160a01b0392909216919091179055565b63ffffffff1660009081526006602052604090205490565b600f546000906001600160a01b0316331461232c5760405162461bcd60e51b81526004018080602001828103825260258152602001806137c56025913960400191505060405180910390fd5b6040805183815290517fedcacf765f0e0f85ab617e646e63c0035bf47af6b52886cc9984d50289f240fe9181900360200190a150600e55600190565b6013546000906001600160a01b031633146123b7576040805162461bcd60e51b815260206004820152600a60248201526937b7363ca4b9b9bab2b960b11b604482015290519081900360640190fd5b610e76848484612b0d565b6001600160a01b031660009081526012602052604090205460ff1690565b6010546001600160a01b031690565b600a60209081526000928352604080842090915290825290205481565b60056020526000908152604090205460ff1681565b6001600160a01b03918216600090815260046020908152604080832093909416825291909152205490565b60066020526000908152604090205481565b6011546001600160a01b031633146124b2576040805162461bcd60e51b81526020600482015260126024820152716f6e6c79436f6d706c69616e6365526f6c6560701b604482015290519081900360640190fd5b6001600160a01b03811660009081526012602052604090205460ff16612517576040805162461bcd60e51b815260206004820152601560248201527430b2323932b9b99034b9903737ba10333937bd32b760591b604482015290519081900360640190fd5b6001600160a01b0381166000818152600c602090815260409182902054825190815291516000805160206137ea8339815191529281900390910190a26001600160a01b0381166000818152600c6020908152604080832054815190815290519293926000805160206137a5833981519152929181900390910190a36040516001600160a01b038216907f71e13dfaf69fe3a65acef6b6eff085b0d60c7b3ebf229bda2e2fd3e8c5d1839690600090a26001600160a01b0381166000908152600c6020526040902054611b66908290612a99565b601054600090600160a01b900460ff161561263c576040805162461bcd60e51b815260206004820152600d60248201526c1dda195b939bdd14185d5cd959609a1b604482015290519081900360640190fd5b6040805184815290516001600160a01b0386169133916000805160206137a58339815191529181900360200190a3610e7633858585612f12565b6001600160a01b03166000908152600860209081526040808320546009909252909120540360010190565b6013546000906001600160a01b031633146126f0576040805162461bcd60e51b815260206004820152600a60248201526937b7363ca4b9b9bab2b960b11b604482015290519081900360640190fd5b5063ffffffff166000908152600560205260409020805460ff1916600190811790915590565b600f546000906001600160a01b031633146127625760405162461bcd60e51b81526004018080602001828103825260258152602001806137c56025913960400191505060405180910390fd5b6040805163ffffffff8416815290517f0e91f0c1b4c69bfe0f2bc15b6af80f1a41da85281b6f9f7fd66ae62384ebd6aa9181900360200190a150600d805463ffffffff831663ffffffff199091161790556001919050565b6001600160a01b03831660009081526012602052604090205460ff161580156127fc57506001600160a01b03821660009081526012602052604090205460ff16155b61283e576040805162461bcd60e51b815260206004820152600e60248201526d30b2323932b9b990333937bd32b760911b604482015290519081900360640190fd5b6001600160a01b0382166128835760405162461bcd60e51b815260040180806020018281038252602981526020018061377c6029913960400191505060405180910390fd5b816001600160a01b0316836001600160a01b03167f8c5be1e5ebec7d5bd14f71427d1e84f3dd0314c0f7b2291e5b200ac8c7c3b925836040518082815260200191505060405180910390a36001600160a01b0392831660009081526004602090815260408083209490951682529290925291902055565b600082821115612951576040805162461bcd60e51b815260206004820152601e60248201527f536166654d6174683a207375627472616374696f6e206f766572666c6f770000604482015290519081900360640190fd5b50900390565b6001600160a01b0383166000908152600c60205260409020548111156129b9576040805162461bcd60e51b8152602060048201526012602482015271696e73756666696369656e742066756e647360701b604482015290519081900360640190fd5b805b8015612a315760006129cc856132af565b63ffffffff81166000908152600a602090815260408083206001600160a01b038a168452909152902054909150828110612a1357612a0b8686856132e3565b505050612a33565b612a1e8686836132e3565b612a2883826128fa565b925050506129bb565b505b505050565b600082820183811015612a92576040805162461bcd60e51b815260206004820152601b60248201527f536166654d6174683a206164646974696f6e206f766572666c6f770000000000604482015290519081900360640190fd5b9392505050565b805b6000612aa6846132af565b63ffffffff81166000908152600a602090815260408083206001600160a01b0389168452909152902054909150828110612aec57612ae48584613382565b505050612b09565b612af68582613382565b612b0083826128fa565b92505050612a9b565b5050565b6013546001600160a01b03163314612b59576040805162461bcd60e51b815260206004820152600a60248201526937b7363ca4b9b9bab2b960b11b604482015290519081900360640190fd5b601054600160a01b900460ff1615612ba8576040805162461bcd60e51b815260206004820152600d60248201526c1dda195b939bdd14185d5cd959609a1b604482015290519081900360640190fd5b6001600160a01b038316612c03576040805162461bcd60e51b815260206004820152601b60248201527f63616e6e6f74206d696e7420746f2061646472657373207a65726f0000000000604482015290519081900360640190fd5b6001600160a01b03831660009081526012602052604090205460ff1615612c62576040805162461bcd60e51b815260206004820152600e60248201526d30b2323932b9b990333937bd32b760911b604482015290519081900360640190fd5b6040805183815290516001600160a01b038516917f0f6798a560793a54c3bcfe86a93cde1e73087d944c0ea20544137d4121396885919081900360200190a26040805183815290516001600160a01b038516916000916000805160206137a58339815191529181900360200190a363ffffffff81166000908152600b602090815260408083206001600160a01b038716845290915290205460ff16612d0b57612d0b8382613420565b63ffffffff8082166000908152600a602090815260408083206001600160a01b0388168452909152902054612d42918490612a3816565b63ffffffff8083166000908152600a602090815260408083206001600160a01b0389168452825280832094909455600c90529190912054612d85918490612a3816565b6001600160a01b0384166000908152600c6020526040902055600354612dab9083612a38565b60035563ffffffff808216600090815260066020526040902054612dd1918490612a3816565b63ffffffff9091166000908152600660205260409020555050565b601054600160a01b900460ff1615612e3b576040805162461bcd60e51b815260206004820152600d60248201526c1dda195b939bdd14185d5cd959609a1b604482015290519081900360640190fd5b63ffffffff8082166000908152600a602090815260408083206001600160a01b0388168452909152902054612e729184906128fa16565b63ffffffff8083166000908152600a602090815260408083206001600160a01b0389168452825280832094909455600c90529190912054612eb59184906128fa16565b6001600160a01b0384166000908152600c6020526040902055600354612edb90836128fa565b60035563ffffffff808216600090815260066020526040902054612dd19184906128fa16565b6000612f0c30613560565b15905090565b601054600160a01b900460ff1615612f61576040805162461bcd60e51b815260206004820152600d60248201526c1dda195b939bdd14185d5cd959609a1b604482015290519081900360640190fd5b6001600160a01b038316612fbc576040805162461bcd60e51b815260206004820152601f60248201527f63616e6e6f74207472616e7366657220746f2061646472657373207a65726f00604482015290519081900360640190fd5b6001600160a01b03841660009081526012602052604090205460ff16158015612ffe57506001600160a01b03831660009081526012602052604090205460ff16155b613040576040805162461bcd60e51b815260206004820152600e60248201526d30b2323932b9b990333937bd32b760911b604482015290519081900360640190fd5b6001600160a01b0384166000908152600c60205260409020548211156130a2576040805162461bcd60e51b8152602060048201526012602482015271696e73756666696369656e742066756e647360701b604482015290519081900360640190fd5b63ffffffff8082166000908152600a602090815260408083206001600160a01b03891684529091529020546130d99184906128fa16565b63ffffffff8083166000908152600a602090815260408083206001600160a01b038a168452825280832094909455600c9052919091205461311c9184906128fa16565b6001600160a01b0385166000908152600c602090815260408083209390935563ffffffff84168252600590522054819060ff16158061315d5750600e548311155b156131d75750600d5463ffffffff8281166000908152600660205260409020549181169161318d9185906128fa16565b63ffffffff80841660009081526006602052604080822093909355600d548216815291909120546131c0918590612a3816565b63ffffffff82166000908152600660205260409020555b63ffffffff81166000908152600b602090815260408083206001600160a01b038816845290915290205460ff16613212576132128482613420565b63ffffffff8082166000908152600a602090815260408083206001600160a01b0389168452909152902054613249918590612a3816565b63ffffffff8083166000908152600a602090815260408083206001600160a01b038a168452825280832094909455600c9052919091205461328c918590612a3816565b6001600160a01b039094166000908152600c602052604090209390935550505050565b6001600160a01b03166000908152600860209081526040808320546007835281842090845290915290205463ffffffff1690565b601054600160a01b900460ff1615613332576040805162461bcd60e51b815260206004820152600d60248201526c1dda195b939bdd14185d5cd959609a1b604482015290519081900360640190fd5b600061333d846132af565b905061334b84848484612f12565b63ffffffff81166000908152600a602090815260408083206001600160a01b0388168452909152902054612a3157612a3184613566565b601054600160a01b900460ff16156133d1576040805162461bcd60e51b815260206004820152600d60248201526c1dda195b939bdd14185d5cd959609a1b604482015290519081900360640190fd5b60006133dc836132af565b90506133e9838383612dec565b63ffffffff81166000908152600a602090815260408083206001600160a01b0387168452909152902054612a3357612a3383613566565b63ffffffff81166000908152600b602090815260408083206001600160a01b038616845290915290205460ff161561349f576040805162461bcd60e51b815260206004820152601d60248201527f6c6162656c20616c72656164792065786973747320666f722075736572000000604482015290519081900360640190fd5b6001600160a01b0382166000908152600960205260409020546134d9576001600160a01b0382166000908152600860205260409020600190555b6001600160a01b0382166000908152600960205260409020546134fd906001612a38565b6001600160a01b03909216600081815260096020908152604080832086905560078252808320958352948152848220805463ffffffff90951663ffffffff1990951685179055928152600b8352838120918152915220805460ff19166001179055565b3b151590565b6001600160a01b03811660009081526009602090815260408083205460089092529091205411156135cc576040805162461bcd60e51b815260206004820152600b60248201526a656d70747920717565756560a81b604482015290519081900360640190fd5b6001600160a01b038116600081815260086020818152604080842080546007845282862081875284528286205463ffffffff908116808852600b865284882098885297855292909520805460ff1916905592909152905491929161363391600190612a3816565b6001600160a01b0390931660009081526008602090815260408083209590955560078152848220938252929092525020805463ffffffff19169055565b828054600181600116156101000203166002900490600052602060002090601f016020900481019282601f106136b157805160ff19168380011785556136de565b828001600101855582156136de579182015b828111156136de5782518255916020019190600101906136c3565b506136ea9291506136ee565b5090565b5b808211156136ea57600081556001016136ef56fe63616e6e6f74207472616e73666572206f776e65727368697020746f2061646472657373207a65726f63616e6e6f74207365742069737375657220746f2061646472657373207a65726f496e697469616c697a61626c653a20636f6e747261637420697320616c726561647920696e697469616c697a656463616e6e6f7420617070726f766520616c6c6f77616e636520666f72207a65726f2061646472657373ddf252ad1be2c89b69c2b068fc378daa952ba7f163c4a11628f55a4df523b3ef6f6e6c7920746865206f776e65722063616e2063616c6c20746869732066756e6374696f6ecc16f5dbb4873280815c1ee09dbd06736cffcc184412cf7a71a0fdb75d397ca563616e206f6e6c792064697372656761726420612070726f706f736564206f776e65722074686174207761732070726576696f75736c7920736574a264697066735822122005a70b5862e0754e724257dbfab5d159da5126da11b2bbf365939d969c8465e264736f6c634300060c0033",
  "immutableReferences": {},
  "source": "// SPDX-License-Identifier: UNLICENSED\n\npragma solidity 0.6.12;\n\nimport \"@openzeppelin/contracts/math/SafeMath.sol\";\nimport \"@openzeppelin/contracts/token/ERC20/IERC20.sol\";\nimport \"@openzeppelin/contracts/proxy/Initializable.sol\";\n\n/**\n * @title QUSDImplementation\n * @dev This contract is a Pausable ERC20 token with issuance\n * controlled by a central Issuer. By implementing QUSDImplementation\n * this contract also includes external methods for setting\n * a new implementation contract for the Proxy.\n * NOTE: The storage defined here will actually be held in the Proxy\n * contract and all calls to this contract should be made through\n * the proxy, including admin actions done as owner or issuer.\n * Any call to transfer against this contract should fail\n * since the contract is paused and there are no balances.\n */\ncontract QUSDImplementation is IERC20, Initializable {\n    /**\n     * MATH\n     */\n\n    using SafeMath for uint256;\n\n    /**\n     * @dev DATA\n     *\n     * NOTE: Do NOT reorder any declared variables and ONLY append variables.\n     * The proxy relies on existing variables to remain in the same address space.\n     */\n\n    // ERC20 CONSTANT DETAILS\n    string internal _name;\n    string internal _symbol;\n    uint8 internal constant _decimals = 6;\n\n    // ERC20 DATA\n    uint256 internal _totalSupply;\n    mapping(address => mapping(address => uint256)) internal _allowances;\n\n    // LABELED TOKEN DATA\n    mapping(uint32 => bool) public _labelExistence;\n    mapping(uint32 => uint256) public _labelSupply;\n    mapping(address => mapping(uint256 => uint32)) internal _userLabelQueue;\n    mapping(address => uint256) internal _userLabelQueueHeadIndex;\n    mapping(address => uint256) internal _userLabelQueueTailIndex;\n    mapping(uint32 => mapping(address => uint256)) public _labelUserBalances;\n    mapping(uint32 => mapping(address => bool)) public _labelUserExistence;\n    mapping(address => uint256) internal _userBalances;\n    uint32 internal _consolidationLabel;\n    uint256 public _consolidationThreshold;\n\n    // OWNER DATA\n    address internal _owner;\n    address internal _proposedOwner;\n\n    // PAUSABILITY DATA\n    bool internal _paused;\n\n    // COMPLIANCE DATA\n    address internal _complianceRole;\n    mapping(address => bool) internal _frozen;\n\n    // ISSUER DATA\n    address internal _issuer;\n\n    /**\n     * EVENTS\n     */\n\n    // ERC20 EVENTS\n    event Transfer(address indexed from, address indexed to, uint256 value);\n    event Approval(\n        address indexed owner,\n        address indexed spender,\n        uint256 value\n    );\n\n    // NON-STANDARD EVENTS\n    event ChangeName(string oldName, string newName);\n    event ChangeSymbol(string oldSymbol, string newSymbol);\n\n    // OWNABLE EVENTS\n    event OwnershipTransferProposed(\n        address indexed currentOwner,\n        address indexed proposedOwner\n    );\n    event OwnershipTransferDisregarded(address indexed oldProposedOwner);\n    event OwnershipTransferred(\n        address indexed oldOwner,\n        address indexed newOwner\n    );\n\n    // PAUSABLE EVENTS\n    event Pause();\n    event Unpause();\n\n    // COMPLIANCE EVENTS\n    event FreezeAddress(address indexed addr);\n    event UnfreezeAddress(address indexed addr);\n    event WipeFrozenAddress(address indexed addr);\n    event ComplianceRoleSet(\n        address indexed oldComplianceRole,\n        address indexed newComplianceRole\n    );\n\n    // ISSUER EVENTS\n    event Mint(address indexed to, uint256 value);\n    event Burn(address indexed from, uint256 value);\n    event IssuerSet(address indexed oldIssuer, address indexed newIssuer);\n\n    // LABELED EVENTS\n    event SetConsolidationThreshold(uint256 threshold);\n    event SetConsolidationLabel(uint32 label);\n\n    /**\n     * FUNCTIONALITY\n     */\n\n    // INITIALIZATION FUNCTIONALITY\n\n    /**\n     * @dev sets 0 initial tokens, the owner, and the issuer.\n     * this serves as the constructor for the proxy but compiles to the\n     * memory model of the Implementation contract.\n     */\n    function initialize() public initializer {\n        _name = \"QUSD\";\n        _symbol = \"QUSD\";\n        _owner = msg.sender;\n        _proposedOwner = address(0);\n        _complianceRole = address(0);\n        _totalSupply = 0;\n        _issuer = msg.sender;\n        _consolidationLabel = 0;\n        _consolidationThreshold = 0;\n        _labelExistence[_consolidationLabel] = true;\n    }\n\n    // ERC20 GETTERS & SETTERS\n\n    /**\n     * @return The name of the token.\n     */\n    function name() external view returns (string memory) {\n        return _name;\n    }\n\n    function changeName(string memory newName)\n        external\n        onlyOwner\n        returns (bool)\n    {\n        emit ChangeName(_name, newName);\n        _name = newName;\n        return true;\n    }\n\n    /**\n     * @return The symbol of the token.\n     */\n    function symbol() external view returns (string memory) {\n        return _symbol;\n    }\n\n    function changeSymbol(string memory newSymbol)\n        external\n        onlyOwner\n        returns (bool)\n    {\n        emit ChangeSymbol(_symbol, newSymbol);\n        _symbol = newSymbol;\n        return true;\n    }\n\n    /**\n     * @return The number of decimals of the token.\n     */\n    function decimals() external pure returns (uint8) {\n        return _decimals;\n    }\n\n    /**\n     * @return The total number of tokens in existence\n     */\n    function totalSupply() external view override returns (uint256) {\n        return _totalSupply;\n    }\n\n    /**\n     * @dev Gets the balance of the specified address.\n     * @param addr The address to query the balance of.\n     * @return A uint256 representing the amount owned by the passed address.\n     */\n    function balanceOf(address addr) external view override returns (uint256) {\n        return _userBalances[addr];\n    }\n\n    // APPROVAL FUNCTIONALITY\n\n    /**\n     * @dev Approve the passed address to spend the specified amount of tokens on behalf of msg.sender.\n     * Beware that changing an allowance with this method brings the risk that someone may use both the old\n     * and the new allowance by unfortunate transaction ordering. One possible solution to mitigate this\n     * race condition is to first reduce the spender's allowance to 0 and set the desired value afterwards:\n     * https://github.com/ethereum/EIPs/issues/20#issuecomment-263524729\n     * @param spender The address which will spend the funds.\n     * @param value The amount of tokens to be spent.\n     */\n    function approve(address spender, uint256 value)\n        external\n        override\n        whenNotPaused\n        returns (bool)\n    {\n        _approve(msg.sender, spender, value);\n\n        return true;\n    }\n\n    /**\n     * @dev Atomically increases the allowance granted to `spender` by the caller.\n     * @param spender The address that will spend the tokens.\n     * @param addedValue The increase in the number of tokens that can be spent.\n     *\n     * This mitigates the problem described in:\n     * https://github.com/ethereum/EIPs/issues/20#issuecomment-263524729\n     */\n    function increaseAllowance(address spender, uint256 addedValue)\n        external\n        whenNotPaused\n        returns (bool)\n    {\n        _approve(\n            msg.sender,\n            spender,\n            _allowances[msg.sender][spender].add(addedValue)\n        );\n        return true;\n    }\n\n    /**\n     * @dev Atomically decreases the allowance granted to `spender` by the caller.\n     * @param spender The address that will spend the tokens.\n     * @param subtractedValue The decrease in the number of tokens that can be spent.\n     *\n     * This mitigates the problem described in:\n     * https://github.com/ethereum/EIPs/issues/20#issuecomment-263524729\n     */\n    function decreaseAllowance(address spender, uint256 subtractedValue)\n        external\n        whenNotPaused\n        returns (bool)\n    {\n        _approve(\n            msg.sender,\n            spender,\n            _allowances[msg.sender][spender].sub(subtractedValue)\n        );\n        return true;\n    }\n\n    /**\n     * @dev Function to check the amount of tokens that an owner allowed to a spender.\n     * @param owner address The address which owns the funds.\n     * @param spender address The address which will spend the funds.\n     * @return A uint256 specifying the amount of tokens still available for the spender.\n     */\n    function allowance(address owner, address spender)\n        external\n        view\n        override\n        returns (uint256)\n    {\n        return _allowances[owner][spender];\n    }\n\n    /**\n     * @dev Approve an address to spend another addresses' tokens.\n     * @param owner The address that owns the tokens.\n     * @param spender The address that will spend the tokens.\n     * @param value The number of tokens that can be spent.\n     */\n    function _approve(\n        address owner,\n        address spender,\n        uint256 value\n    ) internal {\n        require(!_frozen[owner] && !_frozen[spender], \"address frozen\");\n        require(\n            spender != address(0),\n            \"cannot approve allowance for zero address\"\n        );\n        emit Approval(owner, spender, value);\n\n        _allowances[owner][spender] = value;\n    }\n\n    // TRANSFER FUNCTIONALITY\n\n    /**\n     * @dev Transfer token to a specified address from msg.sender\n     * Note: the use of Safemath ensures that value is nonnegative.\n     * @param to The address to transfer to.\n     * @param value The amount to be transferred.\n     */\n    function transfer(address to, uint256 value)\n        external\n        override\n        whenNotPaused\n        returns (bool)\n    {\n        emit Transfer(msg.sender, to, value);\n        _transfer(msg.sender, to, value);\n\n        return true;\n    }\n\n    /**\n     * @dev Transfers a specific labeled token only.\n     * @param to The address to transfer to.\n     * @param value The amount to be transferred.\n     * @param label The label to transfer under.\n     */\n    function transferForLabel(\n        address to,\n        uint256 value,\n        uint32 label\n    ) external whenNotPaused returns (bool) {\n        emit Transfer(msg.sender, to, value);\n        _transferForLabel(msg.sender, to, value, label);\n\n        return true;\n    }\n\n    /**\n     * @dev Transfer tokens from one address to another\n     * @param from address The address which you want to send tokens from\n     * @param to address The address which you want to transfer to\n     * @param value uint256 the amount of tokens to be transferred\n     */\n    function transferFrom(\n        address from,\n        address to,\n        uint256 value\n    ) external override whenNotPaused returns (bool) {\n        require(\n            value <= _allowances[from][msg.sender],\n            \"insufficient allowance\"\n        );\n        emit Transfer(from, to, value);\n\n        _allowances[from][msg.sender] = _allowances[from][msg.sender].sub(\n            value\n        );\n        _transfer(from, to, value);\n\n        return true;\n    }\n\n    function _transfer(\n        address from,\n        address to,\n        uint256 value\n    ) internal {\n        require(value <= _userBalances[from], \"insufficient funds\");\n\n        uint256 remainder = value;\n        while (remainder > 0) {\n            uint32 headLabel = _peekUserLabelQueue(from);\n            uint256 availableUnderLabel = _labelUserBalances[headLabel][from];\n            if (availableUnderLabel >= remainder) {\n                // We've fulfilled the whole tx\n                _transferForLabelQueueHead(from, to, remainder);\n                return;\n            } else {\n                // We will need to keep iterating to fulfill the tx\n                _transferForLabelQueueHead(from, to, availableUnderLabel);\n                remainder = remainder.sub(availableUnderLabel);\n            }\n        }\n    }\n\n    function _transferForLabelQueueHead(\n        address from,\n        address to,\n        uint256 value\n    ) internal whenNotPaused {\n        uint32 label = _peekUserLabelQueue(from);\n        _transferForLabel(from, to, value, label);\n        if (_labelUserBalances[label][from] == 0) {\n            _dequeueUserLabelQueue(from);\n        }\n    }\n\n    function _transferForLabel(\n        address from,\n        address to,\n        uint256 value,\n        uint32 label\n    ) internal whenNotPaused {\n        require(to != address(0), \"cannot transfer to address zero\");\n        require(!_frozen[from] && !_frozen[to], \"address frozen\");\n        require(value <= _userBalances[from], \"insufficient funds\");\n\n        _labelUserBalances[label][from] = _labelUserBalances[label][from].sub(\n            value\n        );\n        _userBalances[from] = _userBalances[from].sub(value);\n\n        uint32 destinationLabel = label;\n        if (\n            !_labelExistence[destinationLabel] ||\n            value <= _consolidationThreshold\n        ) {\n            destinationLabel = _consolidationLabel;\n            _labelSupply[label] = _labelSupply[label].sub(value);\n            _labelSupply[destinationLabel] = _labelSupply[_consolidationLabel]\n                .add(value);\n        }\n        if (!_labelUserExistence[destinationLabel][to]) {\n            _enqueueUserLabelQueue(to, destinationLabel);\n        }\n        _labelUserBalances[destinationLabel][to] = _labelUserBalances[\n            destinationLabel\n        ][to]\n            .add(value);\n        _userBalances[to] = _userBalances[to].add(value);\n    }\n\n    // OWNER FUNCTIONALITY\n\n    /**\n     * @dev Throws if called by any account other than the owner.\n     */\n    modifier onlyOwner() {\n        require(msg.sender == _owner, \"only the owner can call this function\");\n        _;\n    }\n\n    /**\n     * @dev Current owner\n     */\n    function owner() external view returns (address) {\n        return _owner;\n    }\n\n    /**\n     * @dev Proposed new owner\n     */\n    function proposedOwner() external view returns (address) {\n        return _proposedOwner;\n    }\n\n    /**\n     * @dev Allows the current owner to begin transferring control of the contract to a proposedOwner\n     * @param newProposedOwner The address to transfer ownership to.\n     */\n    function proposeOwner(address newProposedOwner) external onlyOwner {\n        require(\n            newProposedOwner != address(0),\n            \"cannot transfer ownership to address zero\"\n        );\n        require(msg.sender != newProposedOwner, \"caller already is owner\");\n        emit OwnershipTransferProposed(_owner, newProposedOwner);\n\n        _proposedOwner = newProposedOwner;\n    }\n\n    /**\n     * @dev Allows the current owner or proposed owner to cancel transferring control of the contract to a proposedOwner\n     */\n    function disregardProposeOwner() external {\n        require(\n            msg.sender == _proposedOwner || msg.sender == _owner,\n            \"only proposedOwner or owner\"\n        );\n        require(\n            _proposedOwner != address(0),\n            \"can only disregard a proposed owner that was previously set\"\n        );\n        emit OwnershipTransferDisregarded(_proposedOwner);\n\n        _proposedOwner = address(0);\n    }\n\n    /**\n     * @dev Allows the proposed owner to complete transferring control of the contract to the proposedOwner.\n     */\n    function claimOwnership() external {\n        require(msg.sender == _proposedOwner, \"onlyProposedOwner\");\n        emit OwnershipTransferred(_owner, _proposedOwner);\n\n        _owner = _proposedOwner;\n        _proposedOwner = address(0);\n    }\n\n    // PAUSABILITY FUNCTIONALITY\n\n    /**\n     * @dev Pause status\n     */\n    function paused() external view returns (bool) {\n        return _paused;\n    }\n\n    /**\n     * @dev Modifier to make a function callable only when the contract is not _paused.\n     */\n    modifier whenNotPaused() {\n        require(!_paused, \"whenNotPaused\");\n        _;\n    }\n\n    /**\n     * @dev called by the owner to pause, triggers stopped state\n     */\n    function pause() external onlyOwner {\n        require(!_paused, \"already _paused\");\n        emit Pause();\n\n        _paused = true;\n    }\n\n    /**\n     * @dev called by the owner to unpause, returns to normal state\n     */\n    function unpause() external onlyOwner {\n        require(_paused, \"already un_paused\");\n        emit Unpause();\n\n        _paused = false;\n    }\n\n    // COMPLIANCE FUNCTIONALITY\n\n    /**\n     * @dev Current compliance role\n     */\n    function complianceRole() external view returns (address) {\n        return _complianceRole;\n    }\n\n    /**\n     * @dev Gets the frozen status of the specified address.\n     * @param addr The address to query the the status of.\n     * @return A bool representing whether the address is frozen.\n     */\n    function frozen(address addr) external view returns (bool) {\n        return _frozen[addr];\n    }\n\n    /**\n     * @dev Sets a new compliance role address.\n     * @param newComplianceRole The new address allowed to freeze/unfreeze addresses and seize their tokens.\n     */\n    function setComplianceRole(address newComplianceRole) external {\n        require(\n            msg.sender == _complianceRole || msg.sender == _owner,\n            \"only complianceRole or Owner\"\n        );\n        emit ComplianceRoleSet(_complianceRole, newComplianceRole);\n\n        _complianceRole = newComplianceRole;\n    }\n\n    modifier onlyComplianceRole() {\n        require(msg.sender == _complianceRole, \"onlyComplianceRole\");\n        _;\n    }\n\n    /**\n     * @dev Freezes an address balance from being transferred.\n     * @param addr The new address to freeze.\n     */\n    function freeze(address addr) external onlyComplianceRole {\n        require(!_frozen[addr], \"address already frozen\");\n        emit FreezeAddress(addr);\n\n        _frozen[addr] = true;\n    }\n\n    /**\n     * @dev Unfreezes an address balance allowing transfer.\n     * @param addr The new address to unfreeze.\n     */\n    function unfreeze(address addr) external onlyComplianceRole {\n        require(_frozen[addr], \"address already unfrozen\");\n        emit UnfreezeAddress(addr);\n\n        _frozen[addr] = false;\n    }\n\n    /**\n     * @dev Wipes the balance of a frozen address, burning the tokens\n     * and setting the approval to zero.\n     * @param addr The new frozen address to wipe.\n     */\n    function wipeFrozenAddress(address addr) external onlyComplianceRole {\n        require(_frozen[addr], \"address is not frozen\");\n        emit Burn(addr, _userBalances[addr]);\n        emit Transfer(addr, address(0), _userBalances[addr]);\n        emit WipeFrozenAddress(addr);\n\n        _burn(addr, _userBalances[addr]);\n    }\n\n    // ISSUER FUNCTIONALITY\n\n    /**\n     * @dev Current issuer\n     */\n    function issuer() external view returns (address) {\n        return _issuer;\n    }\n\n    /**\n     * @dev Sets a new issuer address.\n     * @param newIssuer The address allowed to mint tokens to control supply.\n     */\n    function setIssuer(address newIssuer) external onlyOwner {\n        require(newIssuer != address(0), \"cannot set issuer to address zero\");\n        emit IssuerSet(_issuer, newIssuer);\n\n        _issuer = newIssuer;\n    }\n\n    modifier onlyIssuer() {\n        require(msg.sender == _issuer, \"onlyIssuer\");\n        _;\n    }\n\n    // MINT FUNCTIONALITY\n\n    /**\n     * @dev Increases the total supply by minting the specified number of tokens to the issuer account.\n     * @param value The number of tokens to add.\n     * @return A boolean that indicates if the operation was successful.\n     */\n    function mint(uint256 value) external onlyIssuer returns (bool) {\n        _mintForLabel(msg.sender, value, _consolidationLabel);\n\n        return true;\n    }\n\n    function mintForLabel(uint256 value, uint32 label)\n        external\n        onlyIssuer\n        returns (bool success)\n    {\n        _mintForLabel(msg.sender, value, label);\n\n        return true;\n    }\n\n    /**\n     * @dev Increases the total supply by minting the specified number of tokens to the specified account.\n     * @param value The number of tokens to add.\n     * @return A boolean that indicates if the operation was successful.\n     */\n    function mintTo(address to, uint256 value)\n        external\n        onlyIssuer\n        returns (bool)\n    {\n        _mintForLabel(to, value, _consolidationLabel);\n\n        return true;\n    }\n\n    function mintToForLabel(\n        address to,\n        uint256 value,\n        uint32 label\n    ) external onlyIssuer returns (bool) {\n        _mintForLabel(to, value, label);\n\n        return true;\n    }\n\n    /**\n     * @dev Internal function that mints an amount of the token and assigns it to\n     * an account. This encapsulates the modification of _userBalances such that the\n     * proper events are emitted.\n     * @param to The account that will receive the created tokens.\n     * @param value The amount that will be created.\n     * @param label The label to mint under\n     */\n    function _mintForLabel(\n        address to,\n        uint256 value,\n        uint32 label\n    ) internal onlyIssuer whenNotPaused {\n        require(to != address(0), \"cannot mint to address zero\");\n        require(!_frozen[to], \"address frozen\");\n        emit Mint(to, value);\n        emit Transfer(address(0), to, value);\n\n        if (!_labelUserExistence[label][to]) {\n            _enqueueUserLabelQueue(to, label);\n        }\n        _labelUserBalances[label][to] = _labelUserBalances[label][to].add(\n            value\n        );\n        _userBalances[to] = _userBalances[to].add(value);\n        _totalSupply = _totalSupply.add(value);\n        _labelSupply[label] = _labelSupply[label].add(value);\n    }\n\n    // BURN FUNCTIONALITY\n\n    /**\n     * @dev Decreases the total supply by burning the specified number of tokens.\n     * @param value The number of tokens to remove.\n     * @return A boolean that indicates if the operation was successful.\n     */\n    function burn(uint256 value) external returns (bool) {\n        require(!_frozen[msg.sender], \"address frozen\");\n        require(value <= _userBalances[msg.sender], \"insufficient funds\");\n        emit Burn(msg.sender, value);\n        emit Transfer(msg.sender, address(0), value);\n\n        _burn(msg.sender, value);\n\n        return true;\n    }\n\n    /**\n     * @dev Burns tokens only under a specific label.\n     * @param value The number of tokens to remove.\n     * @param label The label to burn for.\n     * @return A boolean that indicates if the operation was successful.\n     */\n    function burnForLabel(uint256 value, uint32 label) external returns (bool) {\n        require(!_frozen[msg.sender], \"address frozen\");\n        require(value <= _userBalances[msg.sender], \"insufficient funds\");\n        emit Burn(msg.sender, value);\n        emit Transfer(msg.sender, address(0), value);\n\n        _burnForLabel(msg.sender, value, label);\n\n        return true;\n    }\n\n    /**\n     * @dev Decreases the total supply by burning the specified number of tokens from the specified address.\n     * @param value The number of tokens to remove.\n     * @return A boolean that indicates if the operation was successful.\n     */\n    function burnFrom(address from, uint256 value) external returns (bool) {\n        require(!_frozen[from] && !_frozen[msg.sender], \"address frozen\");\n        require(value <= _userBalances[from], \"insufficient funds\");\n        require(\n            value <= _allowances[from][msg.sender],\n            \"insufficient allowance\"\n        );\n        emit Burn(from, value);\n        emit Transfer(from, address(0), value);\n\n        _burn(from, value);\n        _allowances[from][msg.sender] = _allowances[from][msg.sender].sub(\n            value\n        );\n\n        return true;\n    }\n\n    /**\n     * @dev Internal function that burns an amount of the token of a given\n     * account.\n     * @param addr The account whose tokens will be burnt.\n     * @param value The amount that will be burnt.\n     */\n    function _burn(address addr, uint256 value) internal {\n        uint256 remainder = value;\n        while (remainder >= 0) {\n            uint32 label = _peekUserLabelQueue(addr);\n            uint256 availableUnderLabel = _labelUserBalances[label][addr];\n            if (availableUnderLabel >= remainder) {\n                // We've fulfilled the whole tx\n                _burnForLabelQueueHead(addr, remainder);\n                return;\n            } else {\n                // We will need to keep iterating to fulfill the tx\n                _burnForLabelQueueHead(addr, availableUnderLabel);\n                remainder = remainder.sub(availableUnderLabel);\n            }\n        }\n    }\n\n    function _burnForLabelQueueHead(address addr, uint256 value)\n        internal\n        whenNotPaused\n    {\n        uint32 label = _peekUserLabelQueue(addr);\n        _burnForLabel(addr, value, label);\n        if (_labelUserBalances[label][addr] == 0) {\n            _dequeueUserLabelQueue(addr);\n        }\n    }\n\n    /**\n     * @dev Internal function that burns an amount of the token of a given\n     * account.\n     * @param addr The account whose tokens will be burnt.\n     * @param value The amount that will be burnt.\n     * @param label The label to burn under\n     */\n    function _burnForLabel(\n        address addr,\n        uint256 value,\n        uint32 label\n    ) internal whenNotPaused {\n        _labelUserBalances[label][addr] = _labelUserBalances[label][addr].sub(\n            value\n        );\n        _userBalances[addr] = _userBalances[addr].sub(value);\n        _totalSupply = _totalSupply.sub(value);\n        _labelSupply[label] = _labelSupply[label].sub(value);\n    }\n\n    // LABEL FUNCTIONALITY\n\n    function labelSupply(uint32 label) external view returns (uint256) {\n        return _labelSupply[label];\n    }\n\n    function labelBalanceOf(address addr, uint32 label)\n        external\n        view\n        returns (uint256)\n    {\n        return _labelUserBalances[label][addr];\n    }\n\n    function setConsolidationThreshold(uint256 newConsolidationThreshold)\n        external\n        onlyOwner\n        returns (bool)\n    {\n        emit SetConsolidationThreshold(newConsolidationThreshold);\n        _consolidationThreshold = newConsolidationThreshold;\n\n        return true;\n    }\n\n    function setConsolidationLabel(uint32 newConsolidationLabel)\n        external\n        onlyOwner\n        returns (bool)\n    {\n        emit SetConsolidationLabel(newConsolidationLabel);\n        _consolidationLabel = newConsolidationLabel;\n\n        return true;\n    }\n\n    function consolidationLabel() external view returns (uint32) {\n        return _consolidationLabel;\n    }\n\n    function balanceOfUserForLabel(address addr, uint32 label)\n        external\n        view\n        returns (uint256)\n    {\n        return _labelUserBalances[label][addr];\n    }\n\n    function addLabel(uint32 label) external onlyIssuer returns (bool) {\n        _labelExistence[label] = true;\n        return true;\n    }\n\n    function removeLabel(uint32 label) external onlyIssuer returns (bool) {\n        _labelExistence[label] = false;\n        return true;\n    }\n\n    function _enqueueUserLabelQueue(address user, uint32 label) internal {\n        require(\n            !_labelUserExistence[label][user],\n            \"label already exists for user\"\n        );\n        if (_userLabelQueueTailIndex[user] == 0) {\n            // New queue init\n            _userLabelQueueHeadIndex[user] = 1;\n        }\n        _userLabelQueueTailIndex[user] = _userLabelQueueTailIndex[user].add(1);\n        uint256 newTailIndex = _userLabelQueueTailIndex[user];\n        _userLabelQueue[user][newTailIndex] = label;\n        _labelUserExistence[label][user] = true;\n    }\n\n    function _dequeueUserLabelQueue(address user) internal {\n        require(\n            _userLabelQueueHeadIndex[user] <= _userLabelQueueTailIndex[user],\n            \"empty queue\"\n        );\n\n        uint256 oldHeadIndex = _userLabelQueueHeadIndex[user];\n        uint32 oldLabel = _userLabelQueue[user][oldHeadIndex];\n        _labelUserExistence[oldLabel][user] = false;\n        _userLabelQueueHeadIndex[user] = _userLabelQueueHeadIndex[user].add(1);\n        _userLabelQueue[user][oldHeadIndex] = 0;\n    }\n\n    function _peekUserLabelQueue(address user) internal view returns (uint32) {\n        uint256 headIndex = _userLabelQueueHeadIndex[user];\n        return _userLabelQueue[user][headIndex];\n    }\n\n    function userLabelQueueLength(address user)\n        external\n        view\n        returns (uint256)\n    {\n        return\n            _userLabelQueueTailIndex[user] - _userLabelQueueHeadIndex[user] + 1;\n    }\n}\n",
  "sourcePath": "/Users/dazheng/workspace/token-contracts/qusd-qtum/token/contracts/QUSDImplementation.sol",
  "compiler": {
    "name": "solc",
    "version": "0.6.12+commit.27d51765.Emscripten.clang"
  },
  "schemaVersion": "3.3.3",
  "updatedAt": "2021-03-17T05:06:47.316Z",
  "devdoc": {
    "details": "This contract is a Pausable ERC20 token with issuance controlled by a central Issuer. By implementing QUSDImplementation this contract also includes external methods for setting a new implementation contract for the Proxy. NOTE: The storage defined here will actually be held in the Proxy contract and all calls to this contract should be made through the proxy, including admin actions done as owner or issuer. Any call to transfer against this contract should fail since the contract is paused and there are no balances.",
    "kind": "dev",
    "methods": {
      "allowance(address,address)": {
        "details": "Function to check the amount of tokens that an owner allowed to a spender.",
        "params": {
          "owner": "address The address which owns the funds.",
          "spender": "address The address which will spend the funds."
        },
        "returns": {
          "_0": "A uint256 specifying the amount of tokens still available for the spender."
        }
      },
      "approve(address,uint256)": {
        "details": "Approve the passed address to spend the specified amount of tokens on behalf of msg.sender. Beware that changing an allowance with this method brings the risk that someone may use both the old and the new allowance by unfortunate transaction ordering. One possible solution to mitigate this race condition is to first reduce the spender's allowance to 0 and set the desired value afterwards: https://github.com/ethereum/EIPs/issues/20#issuecomment-263524729",
        "params": {
          "spender": "The address which will spend the funds.",
          "value": "The amount of tokens to be spent."
        }
      },
      "balanceOf(address)": {
        "details": "Gets the balance of the specified address.",
        "params": {
          "addr": "The address to query the balance of."
        },
        "returns": {
          "_0": "A uint256 representing the amount owned by the passed address."
        }
      },
      "burn(uint256)": {
        "details": "Decreases the total supply by burning the specified number of tokens.",
        "params": {
          "value": "The number of tokens to remove."
        },
        "returns": {
          "_0": "A boolean that indicates if the operation was successful."
        }
      },
      "burnForLabel(uint256,uint32)": {
        "details": "Burns tokens only under a specific label.",
        "params": {
          "label": "The label to burn for.",
          "value": "The number of tokens to remove."
        },
        "returns": {
          "_0": "A boolean that indicates if the operation was successful."
        }
      },
      "burnFrom(address,uint256)": {
        "details": "Decreases the total supply by burning the specified number of tokens from the specified address.",
        "params": {
          "value": "The number of tokens to remove."
        },
        "returns": {
          "_0": "A boolean that indicates if the operation was successful."
        }
      },
      "claimOwnership()": {
        "details": "Allows the proposed owner to complete transferring control of the contract to the proposedOwner."
      },
      "complianceRole()": {
        "details": "Current compliance role"
      },
      "decimals()": {
        "returns": {
          "_0": "The number of decimals of the token."
        }
      },
      "decreaseAllowance(address,uint256)": {
        "details": "Atomically decreases the allowance granted to `spender` by the caller.",
        "params": {
          "spender": "The address that will spend the tokens.",
          "subtractedValue": "The decrease in the number of tokens that can be spent. This mitigates the problem described in: https://github.com/ethereum/EIPs/issues/20#issuecomment-263524729"
        }
      },
      "disregardProposeOwner()": {
        "details": "Allows the current owner or proposed owner to cancel transferring control of the contract to a proposedOwner"
      },
      "freeze(address)": {
        "details": "Freezes an address balance from being transferred.",
        "params": {
          "addr": "The new address to freeze."
        }
      },
      "frozen(address)": {
        "details": "Gets the frozen status of the specified address.",
        "params": {
          "addr": "The address to query the the status of."
        },
        "returns": {
          "_0": "A bool representing whether the address is frozen."
        }
      },
      "increaseAllowance(address,uint256)": {
        "details": "Atomically increases the allowance granted to `spender` by the caller.",
        "params": {
          "addedValue": "The increase in the number of tokens that can be spent. This mitigates the problem described in: https://github.com/ethereum/EIPs/issues/20#issuecomment-263524729",
          "spender": "The address that will spend the tokens."
        }
      },
      "initialize()": {
        "details": "sets 0 initial tokens, the owner, and the issuer. this serves as the constructor for the proxy but compiles to the memory model of the Implementation contract."
      },
      "issuer()": {
        "details": "Current issuer"
      },
      "mint(uint256)": {
        "details": "Increases the total supply by minting the specified number of tokens to the issuer account.",
        "params": {
          "value": "The number of tokens to add."
        },
        "returns": {
          "_0": "A boolean that indicates if the operation was successful."
        }
      },
      "mintTo(address,uint256)": {
        "details": "Increases the total supply by minting the specified number of tokens to the specified account.",
        "params": {
          "value": "The number of tokens to add."
        },
        "returns": {
          "_0": "A boolean that indicates if the operation was successful."
        }
      },
      "name()": {
        "returns": {
          "_0": "The name of the token."
        }
      },
      "owner()": {
        "details": "Current owner"
      },
      "pause()": {
        "details": "called by the owner to pause, triggers stopped state"
      },
      "paused()": {
        "details": "Pause status"
      },
      "proposeOwner(address)": {
        "details": "Allows the current owner to begin transferring control of the contract to a proposedOwner",
        "params": {
          "newProposedOwner": "The address to transfer ownership to."
        }
      },
      "proposedOwner()": {
        "details": "Proposed new owner"
      },
      "setComplianceRole(address)": {
        "details": "Sets a new compliance role address.",
        "params": {
          "newComplianceRole": "The new address allowed to freeze/unfreeze addresses and seize their tokens."
        }
      },
      "setIssuer(address)": {
        "details": "Sets a new issuer address.",
        "params": {
          "newIssuer": "The address allowed to mint tokens to control supply."
        }
      },
      "symbol()": {
        "returns": {
          "_0": "The symbol of the token."
        }
      },
      "totalSupply()": {
        "returns": {
          "_0": "The total number of tokens in existence"
        }
      },
      "transfer(address,uint256)": {
        "details": "Transfer token to a specified address from msg.sender Note: the use of Safemath ensures that value is nonnegative.",
        "params": {
          "to": "The address to transfer to.",
          "value": "The amount to be transferred."
        }
      },
      "transferForLabel(address,uint256,uint32)": {
        "details": "Transfers a specific labeled token only.",
        "params": {
          "label": "The label to transfer under.",
          "to": "The address to transfer to.",
          "value": "The amount to be transferred."
        }
      },
      "transferFrom(address,address,uint256)": {
        "details": "Transfer tokens from one address to another",
        "params": {
          "from": "address The address which you want to send tokens from",
          "to": "address The address which you want to transfer to",
          "value": "uint256 the amount of tokens to be transferred"
        }
      },
      "unfreeze(address)": {
        "details": "Unfreezes an address balance allowing transfer.",
        "params": {
          "addr": "The new address to unfreeze."
        }
      },
      "unpause()": {
        "details": "called by the owner to unpause, returns to normal state"
      },
      "wipeFrozenAddress(address)": {
        "details": "Wipes the balance of a frozen address, burning the tokens and setting the approval to zero.",
        "params": {
          "addr": "The new frozen address to wipe."
        }
      }
    },
    "stateVariables": {
      "_name": {
        "details": "DATA NOTE: Do NOT reorder any declared variables and ONLY append variables. The proxy relies on existing variables to remain in the same address space."
      }
    },
    "title": "QUSDImplementation",
    "version": 1
  },
  "userdoc": {
    "events": {
      "Transfer(address,address,uint256)": {
        "notice": "EVENTS"
      }
    },
    "kind": "user",
    "methods": {},
    "version": 1
  }
}