{
    "contractName": "SimpleTest",
    "abi": [
        {
            "inputs": [],
            "stateMutability": "nonpayable",
            "type": "constructor"
        },
        {
            "inputs": [
                {
                    "internalType": "uint256",
                    "name": "v",
                    "type": "uint256"
                }
            ],
            "name": "setA",
            "outputs": [],
            "stateMutability": "nonpayable",
            "type": "function"
        },
        {
            "inputs": [
                {
                    "internalType": "uint256",
                    "name": "v",
                    "type": "uint256"
                }
            ],
            "name": "setB",
            "outputs": [],
            "stateMutability": "nonpayable",
            "type": "function"
        },
        {
            "inputs": [],
            "name": "sum",
            "outputs": [
                {
                    "internalType": "uint256",
                    "name": "",
                    "type": "uint256"
                }
            ],
            "stateMutability": "view",
            "type": "function",
            "constant": true
        },
        {
            "inputs": [],
            "name": "product",
            "outputs": [
                {
                    "internalType": "uint256",
                    "name": "",
                    "type": "uint256"
                }
            ],
            "stateMutability": "view",
            "type": "function",
            "constant": true
        }
    ],
    "bytecode": "0x608060405234801561001057600080fd5b50600080805560015560f3806100276000396000f3fe6080604052348015600f57600080fd5b506004361060465760003560e01c806309cdcf9b14604b578063853255cc146067578063bf9ce95214607f578063ee919d50146085575b600080fd5b606560048036036020811015605f57600080fd5b5035609f565b005b606d60a4565b60408051918252519081900360200190f35b606d60ae565b606560048036036020811015609957600080fd5b503560b8565b600155565b6001546000540190565b6001546000540290565b60005556fea264697066735822122058f60d75b47025dbbbc8dbabee930f5c6d814410087720712590957b9323cb8664736f6c634300060c0033",
    "immutableReferences": {},
    "source": "pragma solidity 0.6.12;\n\ncontract SimpleTest{\n    uint256 _a;\n    uint256 _b;\n\n    constructor() public {\n        _a = 0;\n        _b = 0;\n    }\n\n    function setA(uint256 v) public {\n        _a = v;\n    }\n\n    function setB(uint256 v) public {\n        _b = v;\n    }\n\n    function sum() public view returns (uint256){\n        return _a + _b;\n    }\n\n    function product() public view returns (uint256){\n        return _a * _b;\n    }\n}",
    "sourcePath": "/Users/quangle/Desktop/work/qusd-qtum2/token/contracts/SimpleTest.sol",
    "compiler": {
        "name": "solc",
        "version": "0.6.12+commit.27d51765.Emscripten.clang"
    },
    "schemaVersion": "3.3.3",
    "updatedAt": "2021-03-31T03:51:56.339Z",
    "networkType": "ethereum",
    "devdoc": {
        "kind": "dev",
        "methods": {},
        "version": 1
    },
    "userdoc": {
        "kind": "user",
        "methods": {},
        "version": 1
    }
}